{
    "contractName": "HelloWeb3",
    "abi": [
        {
            "inputs": [],
            "name": "_string",
            "outputs": [
                {
                    "internalType": "string",
                    "name": "",
                    "type": "string"
                }
            ],
            "stateMutability": "view",
            "type": "function"
        }
    ],
    "bytecode": "608080604052346100c2575f54600190600181811c911680156100b8575b60208210146100a457601f811161005e575b7f48656c6c6f772020576f726c640000000000000000000000000000000000001a5f556101b883816100c78239f35b5f8052601f0160051c7f290decd9548b62a8d60345a988386fc84ba6bc95484008f6362f93160ef3e563908101905b81811061009a575061002f565b5f8155820161008d565b634e487b7160e01b5f52602260045260245ffd5b90607f169061001d565b5f80fdfe6080600436101561000e575f80fd5b5f3560e01c639b267f0914610021575f80fd5b3461017e575f36600319011261017e575f8054916001918360011c9260018516908115610174575b602095868610831461016057858552869290811561014157506001146100ef575b5050819250601f801993849203011681019281841067ffffffffffffffff8511176100db579083916040918360405281845280519283838601525f5b8481106100c5578560408189601f895f85828601015201168101030190f35b82810184015188820183015287955083016100a6565b634e487b7160e01b5f52604160045260245ffd5b5f8080529192507f290decd9548b62a8d60345a988386fc84ba6bc95484008f6362f93160ef3e5635b85831061012e575050828094500101835f61006a565b8054858401850152918301918101610118565b60ff191683860152509293849350151560051b8301019050835f61006a565b634e487b7160e01b5f52602260045260245ffd5b93607f1693610049565b5f80fdfea26469706673582212209bba107a32ed36989d7d67fae643ce40a7fc1eba3a813811c1639a033e57682e64736f6c63430008180033",
    "sourcePath": "d:/web3/相关资料/web3learning/Solidity/HelloWord.sol",
    "compiler": {
        "name": "solc",
        "version": "0.8.24+commit.e11b9ed9"
    },
    "functionHashes": {
        "_string()": "9b267f09"
    },
    "gasEstimates": {
        "creation": {
            "codeDepositCost": "88000",
            "executionCost": "infinite",
            "totalCost": "infinite"
        },
        "external": {
            "_string()": "infinite"
        }
    }
}