{
    "contractName": "HelloWeb3",
    "abi": [
        {
            "inputs": [],
            "name": "_string",
            "outputs": [
                {
                    "internalType": "string",
                    "name": "",
                    "type": "string"
                }
            ],
            "stateMutability": "view",
            "type": "function"
        }
    ],
    "bytecode": "6080604052341561000f57600080fd5b60008054600180821691811c908261002857607f821691505b6020821083141561004757634e487b7160e01b84526022600452602484fd5b601f82111561007957838452602084209250601f820160051c83015b808410156100775784845592810192610063565b505b50507f48656c6c6f772020576f726c640000000000000000000000000000000000001a909155506101e9806100b0608039806080f3fe608060405260043610610110576000803560e01c639b267f09141561010e573415610028578081fd5b8060031936011215610038578081fd5b80548190600181811c908083168061005157607f831692505b602080841082141561007157634e487b7160e01b87526022600452602487fd5b61007d8460805260a090565b82801561009157600181146100a2576100e8565b60ff198716825282820197506100e8565b600080527f290decd9548b62a8d60345a988386fc84ba6bc95484008f6362f93160ef3e563895b878110156100e2578154848201529086019084016100c9565b83019850505b505050505050506100fc607f198201610115565b506040518061010a82610151565b0381f35b505b600080fd5b601f19601f8201166080016080811067ffffffffffffffff8211171561014b57634e487b7160e01b600052604160045260246000fd5b60405250565b60006020808352608051808285015260005b8181101561017e5760a0810151858201604001528201610163565b81811115610190576000604083870101525b50601f01601f1916929092016040019291505056fea3646970667358221220b8ea72dc363e0a874496b9ecca0225449bd4a586b0ff53de57535b43ef49f4876c6578706572696d656e74616cf564736f6c63430008090041",
    "sourcePath": "d:/web3/相关资料/web3learning/Solidity/HelloWord.sol",
    "compiler": {
        "name": "solc",
        "version": "0.8.9+commit.e5eed63a"
    },
    "functionHashes": {
        "_string()": "9b267f09"
    },
    "gasEstimates": {
        "creation": {
            "codeDepositCost": "97800",
            "executionCost": "infinite",
            "totalCost": "infinite"
        },
        "external": {
            "_string()": "infinite"
        }
    }
}