{
    "contractName": "ValueTypes",
    "abi": [
        {
            "inputs": [],
            "name": "_uint",
            "outputs": [
                {
                    "internalType": "uint256",
                    "name": "",
                    "type": "uint256"
                }
            ],
            "stateMutability": "view",
            "type": "function"
        }
    ],
    "bytecode": "608080604052346017575f80556074908161001c8239f35b5f80fdfe60808060405260043610156011575f80fd5b5f3560e01c632543135b146023575f80fd5b34603a575f366003190112603a576020905f548152f35b5f80fdfea2646970667358221220e6269d2fb098ac2495e6ca00f2d2dfe4eaf3446dfa389d4c5856279963cace5764736f6c63430008180033",
    "sourcePath": "d:/web3/相关资料/web3learning/Solidity/ValueType.sol",
    "compiler": {
        "name": "solc",
        "version": "0.8.24+commit.e11b9ed9"
    },
    "functionHashes": {
        "_uint()": "2543135b"
    },
    "gasEstimates": {
        "creation": {
            "codeDepositCost": "23200",
            "executionCost": "5086",
            "totalCost": "28286"
        },
        "external": {
            "_uint()": "2241"
        }
    }
}