{
	"Solidity/DataStorage.sol": {
		"Variables": {
			"abi": [
				{
					"inputs": [],
					"name": "bar",
					"outputs": [
						{
							"internalType": "uint256",
							"name": "zz1",
							"type": "uint256"
						}
					],
					"stateMutability": "pure",
					"type": "function"
				},
				{
					"inputs": [],
					"name": "etherUnit",
					"outputs": [
						{
							"internalType": "uint256",
							"name": "",
							"type": "uint256"
						}
					],
					"stateMutability": "pure",
					"type": "function"
				},
				{
					"inputs": [],
					"name": "foo",
					"outputs": [],
					"stateMutability": "nonpayable",
					"type": "function"
				},
				{
					"inputs": [],
					"name": "gloabl",
					"outputs": [
						{
							"internalType": "address",
							"name": "a",
							"type": "address"
						},
						{
							"internalType": "uint256",
							"name": "b",
							"type": "uint256"
						},
						{
							"internalType": "bytes",
							"name": "c",
							"type": "bytes"
						}
					],
					"stateMutability": "view",
					"type": "function"
				},
				{
					"inputs": [],
					"name": "gweiUnit",
					"outputs": [
						{
							"internalType": "uint256",
							"name": "",
							"type": "uint256"
						}
					],
					"stateMutability": "pure",
					"type": "function"
				},
				{
					"inputs": [],
					"name": "weiUnit",
					"outputs": [
						{
							"internalType": "uint256",
							"name": "",
							"type": "uint256"
						}
					],
					"stateMutability": "pure",
					"type": "function"
				},
				{
					"inputs": [],
					"name": "x",
					"outputs": [
						{
							"internalType": "uint256",
							"name": "",
							"type": "uint256"
						}
					],
					"stateMutability": "view",
					"type": "function"
				},
				{
					"inputs": [],
					"name": "y",
					"outputs": [
						{
							"internalType": "uint256",
							"name": "",
							"type": "uint256"
						}
					],
					"stateMutability": "view",
					"type": "function"
				},
				{
					"inputs": [],
					"name": "z",
					"outputs": [
						{
							"internalType": "string",
							"name": "",
							"type": "string"
						}
					],
					"stateMutability": "view",
					"type": "function"
				}
			],
			"devdoc": {
				"kind": "dev",
				"methods": {},
				"version": 1
			},
			"evm": {
				"assembly": "    /* \"Solidity/DataStorage.sol\":1055:2270  contract Variables {... */\n  mstore(0x40, 0x80)\n    /* \"Solidity/DataStorage.sol\":1099:1100  1 */\n  0x01\n    /* \"Solidity/DataStorage.sol\":1083:1100  uint public x = 1 */\n  0x00\n  sstore\n    /* \"Solidity/DataStorage.sol\":1055:2270  contract Variables {... */\n  callvalue\n  dup1\n  iszero\n  tag_1\n  jumpi\n  0x00\n  dup1\n  revert\ntag_1:\n  pop\n  dataSize(sub_0)\n  dup1\n  dataOffset(sub_0)\n  0x00\n  codecopy\n  0x00\n  return\nstop\n\nsub_0: assembly {\n        /* \"Solidity/DataStorage.sol\":1055:2270  contract Variables {... */\n      mstore(0x40, 0x80)\n      callvalue\n      dup1\n      iszero\n      tag_1\n      jumpi\n      0x00\n      dup1\n      revert\n    tag_1:\n      pop\n      jumpi(tag_2, lt(calldatasize, 0x04))\n      shr(0xe0, calldataload(0x00))\n      dup1\n      0xaec3d640\n      gt\n      tag_12\n      jumpi\n      dup1\n      0xaec3d640\n      eq\n      tag_7\n      jumpi\n      dup1\n      0xc2985578\n      eq\n      tag_8\n      jumpi\n      dup1\n      0xc5d7802e\n      eq\n      tag_9\n      jumpi\n      dup1\n      0xcb9f1220\n      eq\n      tag_10\n      jumpi\n      dup1\n      0xfebb0f7e\n      eq\n      tag_11\n      jumpi\n      jump(tag_2)\n    tag_12:\n      dup1\n      0x0c55699c\n      eq\n      tag_3\n      jumpi\n      dup1\n      0x12176349\n      eq\n      tag_4\n      jumpi\n      dup1\n      0x8d25de27\n      eq\n      tag_5\n      jumpi\n      dup1\n      0xa56dfe4a\n      eq\n      tag_6\n      jumpi\n    tag_2:\n      0x00\n      dup1\n      revert\n        /* \"Solidity/DataStorage.sol\":1083:1100  uint public x = 1 */\n    tag_3:\n      tag_13\n      tag_14\n      jump\t// in\n    tag_13:\n      mload(0x40)\n      tag_15\n      swap2\n      swap1\n      tag_16\n      jump\t// in\n    tag_15:\n      mload(0x40)\n      dup1\n      swap2\n      sub\n      swap1\n      return\n        /* \"Solidity/DataStorage.sol\":1847:1969  function weiUnit() external pure returns(uint) {... */\n    tag_4:\n      tag_17\n      tag_18\n      jump\t// in\n    tag_17:\n      mload(0x40)\n      tag_19\n      swap2\n      swap1\n      tag_16\n      jump\t// in\n    tag_19:\n      mload(0x40)\n      dup1\n      swap2\n      sub\n      swap1\n      return\n        /* \"Solidity/DataStorage.sol\":1626:1768  function gloabl() external view returns (address a,uint b,bytes memory c){... */\n    tag_5:\n      tag_20\n      tag_21\n      jump\t// in\n    tag_20:\n      mload(0x40)\n      tag_22\n      swap4\n      swap3\n      swap2\n      swap1\n      tag_23\n      jump\t// in\n    tag_22:\n      mload(0x40)\n      dup1\n      swap2\n      sub\n      swap1\n      return\n        /* \"Solidity/DataStorage.sol\":1107:1120  uint public y */\n    tag_6:\n      tag_24\n      tag_25\n      jump\t// in\n    tag_24:\n      mload(0x40)\n      tag_26\n      swap2\n      swap1\n      tag_16\n      jump\t// in\n    tag_26:\n      mload(0x40)\n      dup1\n      swap2\n      sub\n      swap1\n      return\n        /* \"Solidity/DataStorage.sol\":1977:2112  function gweiUnit() external pure returns(uint) {... */\n    tag_7:\n      tag_27\n      tag_28\n      jump\t// in\n    tag_27:\n      mload(0x40)\n      tag_29\n      swap2\n      swap1\n      tag_16\n      jump\t// in\n    tag_29:\n      mload(0x40)\n      dup1\n      swap2\n      sub\n      swap1\n      return\n        /* \"Solidity/DataStorage.sol\":1227:1345  function foo() public {... */\n    tag_8:\n      tag_30\n      tag_31\n      jump\t// in\n    tag_30:\n      stop\n        /* \"Solidity/DataStorage.sol\":1127:1142  string public z */\n    tag_9:\n      tag_32\n      tag_33\n      jump\t// in\n    tag_32:\n      mload(0x40)\n      tag_34\n      swap2\n      swap1\n      tag_35\n      jump\t// in\n    tag_34:\n      mload(0x40)\n      dup1\n      swap2\n      sub\n      swap1\n      return\n        /* \"Solidity/DataStorage.sol\":2116:2265  function etherUnit() external pure returns(uint) {... */\n    tag_10:\n      tag_36\n      tag_37\n      jump\t// in\n    tag_36:\n      mload(0x40)\n      tag_38\n      swap2\n      swap1\n      tag_16\n      jump\t// in\n    tag_38:\n      mload(0x40)\n      dup1\n      swap2\n      sub\n      swap1\n      return\n        /* \"Solidity/DataStorage.sol\":1420:1549  function bar() external pure returns(uint zz1){... */\n    tag_11:\n      tag_39\n      tag_40\n      jump\t// in\n    tag_39:\n      mload(0x40)\n      tag_41\n      swap2\n      swap1\n      tag_16\n      jump\t// in\n    tag_41:\n      mload(0x40)\n      dup1\n      swap2\n      sub\n      swap1\n      return\n        /* \"Solidity/DataStorage.sol\":1083:1100  uint public x = 1 */\n    tag_14:\n      sload(0x00)\n      dup2\n      jump\t// out\n        /* \"Solidity/DataStorage.sol\":1847:1969  function weiUnit() external pure returns(uint) {... */\n    tag_18:\n        /* \"Solidity/DataStorage.sol\":1888:1892  uint */\n      0x00\n        /* \"Solidity/DataStorage.sol\":1917:1920  1e0 */\n      0x01\n        /* \"Solidity/DataStorage.sol\":1908:1913  1 wei */\n      dup1\n        /* \"Solidity/DataStorage.sol\":1908:1920  1 wei == 1e0 */\n      eq\n        /* \"Solidity/DataStorage.sol\":1901:1921  assert(1 wei == 1e0) */\n      tag_43\n      jumpi\n      tag_44\n      tag_45\n      jump\t// in\n    tag_44:\n    tag_43:\n        /* \"Solidity/DataStorage.sol\":1944:1945  1 */\n      0x01\n        /* \"Solidity/DataStorage.sol\":1935:1940  1 wei */\n      dup1\n        /* \"Solidity/DataStorage.sol\":1935:1945  1 wei == 1 */\n      eq\n        /* \"Solidity/DataStorage.sol\":1928:1946  assert(1 wei == 1) */\n      tag_46\n      jumpi\n      tag_47\n      tag_45\n      jump\t// in\n    tag_47:\n    tag_46:\n        /* \"Solidity/DataStorage.sol\":1960:1965  1 wei */\n      0x01\n        /* \"Solidity/DataStorage.sol\":1953:1965  return 1 wei */\n      swap1\n      pop\n        /* \"Solidity/DataStorage.sol\":1847:1969  function weiUnit() external pure returns(uint) {... */\n      swap1\n      jump\t// out\n        /* \"Solidity/DataStorage.sol\":1626:1768  function gloabl() external view returns (address a,uint b,bytes memory c){... */\n    tag_21:\n        /* \"Solidity/DataStorage.sol\":1667:1676  address a */\n      0x00\n        /* \"Solidity/DataStorage.sol\":1677:1683  uint b */\n      dup1\n        /* \"Solidity/DataStorage.sol\":1684:1698  bytes memory c */\n      0x60\n        /* \"Solidity/DataStorage.sol\":1710:1720  msg.sender */\n      caller\n        /* \"Solidity/DataStorage.sol\":1706:1720  a = msg.sender */\n      swap3\n      pop\n        /* \"Solidity/DataStorage.sol\":1731:1743  block.number */\n      number\n        /* \"Solidity/DataStorage.sol\":1727:1743  b = block.number */\n      swap2\n      pop\n        /* \"Solidity/DataStorage.sol\":1756:1764  msg.data */\n      0x00\n      calldatasize\n        /* \"Solidity/DataStorage.sol\":1752:1764  c = msg.data */\n      dup1\n      dup1\n      0x1f\n      add\n      0x20\n      dup1\n      swap2\n      div\n      mul\n      0x20\n      add\n      mload(0x40)\n      swap1\n      dup2\n      add\n      0x40\n      mstore\n      dup1\n      swap4\n      swap3\n      swap2\n      swap1\n      dup2\n      dup2\n      mstore\n      0x20\n      add\n      dup4\n      dup4\n      dup1\n      dup3\n      dup5\n      calldatacopy\n      0x00\n      dup2\n      dup5\n      add\n      mstore\n      not(0x1f)\n      0x1f\n      dup3\n      add\n      and\n      swap1\n      pop\n      dup1\n      dup4\n      add\n      swap3\n      pop\n      pop\n      pop\n      pop\n      pop\n      pop\n      pop\n      swap1\n      pop\n        /* \"Solidity/DataStorage.sol\":1626:1768  function gloabl() external view returns (address a,uint b,bytes memory c){... */\n      swap1\n      swap2\n      swap3\n      jump\t// out\n        /* \"Solidity/DataStorage.sol\":1107:1120  uint public y */\n    tag_25:\n      sload(0x01)\n      dup2\n      jump\t// out\n        /* \"Solidity/DataStorage.sol\":1977:2112  function gweiUnit() external pure returns(uint) {... */\n    tag_28:\n        /* \"Solidity/DataStorage.sol\":2019:2023  uint */\n      0x00\n        /* \"Solidity/DataStorage.sol\":2049:2052  1e9 */\n      0x3b9aca00\n        /* \"Solidity/DataStorage.sol\":2039:2045  1 gwei */\n      dup1\n        /* \"Solidity/DataStorage.sol\":2039:2052  1 gwei == 1e9 */\n      eq\n        /* \"Solidity/DataStorage.sol\":2032:2053  assert(1 gwei == 1e9) */\n      tag_50\n      jumpi\n      tag_51\n      tag_45\n      jump\t// in\n    tag_51:\n    tag_50:\n        /* \"Solidity/DataStorage.sol\":2077:2087  1000000000 */\n      0x3b9aca00\n        /* \"Solidity/DataStorage.sol\":2067:2073  1 gwei */\n      dup1\n        /* \"Solidity/DataStorage.sol\":2067:2087  1 gwei == 1000000000 */\n      eq\n        /* \"Solidity/DataStorage.sol\":2060:2088  assert(1 gwei == 1000000000) */\n      tag_52\n      jumpi\n      tag_53\n      tag_45\n      jump\t// in\n    tag_53:\n    tag_52:\n        /* \"Solidity/DataStorage.sol\":2102:2108  1 gwei */\n      0x3b9aca00\n        /* \"Solidity/DataStorage.sol\":2095:2108  return 1 gwei */\n      swap1\n      pop\n        /* \"Solidity/DataStorage.sol\":1977:2112  function gweiUnit() external pure returns(uint) {... */\n      swap1\n      jump\t// out\n        /* \"Solidity/DataStorage.sol\":1227:1345  function foo() public {... */\n    tag_31:\n        /* \"Solidity/DataStorage.sol\":1311:1312  5 */\n      0x05\n        /* \"Solidity/DataStorage.sol\":1307:1308  x */\n      0x00\n        /* \"Solidity/DataStorage.sol\":1307:1312  x = 5 */\n      dup2\n      swap1\n      sstore\n      pop\n        /* \"Solidity/DataStorage.sol\":1323:1324  2 */\n      0x02\n        /* \"Solidity/DataStorage.sol\":1319:1320  y */\n      0x01\n        /* \"Solidity/DataStorage.sol\":1319:1324  y = 2 */\n      dup2\n      swap1\n      sstore\n      pop\n        /* \"Solidity/DataStorage.sol\":1331:1341  z = \"0xAA\" */\n      mload(0x40)\n      dup1\n      0x40\n      add\n      0x40\n      mstore\n      dup1\n      0x04\n      dup2\n      mstore\n      0x20\n      add\n      0x3078414100000000000000000000000000000000000000000000000000000000\n      dup2\n      mstore\n      pop\n        /* \"Solidity/DataStorage.sol\":1331:1332  z */\n      0x02\n        /* \"Solidity/DataStorage.sol\":1331:1341  z = \"0xAA\" */\n      swap1\n      dup2\n      tag_55\n      swap2\n      swap1\n      tag_56\n      jump\t// in\n    tag_55:\n      pop\n        /* \"Solidity/DataStorage.sol\":1227:1345  function foo() public {... */\n      jump\t// out\n        /* \"Solidity/DataStorage.sol\":1127:1142  string public z */\n    tag_33:\n      0x02\n      dup1\n      sload\n      tag_57\n      swap1\n      tag_58\n      jump\t// in\n    tag_57:\n      dup1\n      0x1f\n      add\n      0x20\n      dup1\n      swap2\n      div\n      mul\n      0x20\n      add\n      mload(0x40)\n      swap1\n      dup2\n      add\n      0x40\n      mstore\n      dup1\n      swap3\n      swap2\n      swap1\n      dup2\n      dup2\n      mstore\n      0x20\n      add\n      dup3\n      dup1\n      sload\n      tag_59\n      swap1\n      tag_58\n      jump\t// in\n    tag_59:\n      dup1\n      iszero\n      tag_60\n      jumpi\n      dup1\n      0x1f\n      lt\n      tag_61\n      jumpi\n      0x0100\n      dup1\n      dup4\n      sload\n      div\n      mul\n      dup4\n      mstore\n      swap2\n      0x20\n      add\n      swap2\n      jump(tag_60)\n    tag_61:\n      dup3\n      add\n      swap2\n      swap1\n      0x00\n      mstore\n      keccak256(0x00, 0x20)\n      swap1\n    tag_62:\n      dup2\n      sload\n      dup2\n      mstore\n      swap1\n      0x01\n      add\n      swap1\n      0x20\n      add\n      dup1\n      dup4\n      gt\n      tag_62\n      jumpi\n      dup3\n      swap1\n      sub\n      0x1f\n      and\n      dup3\n      add\n      swap2\n    tag_60:\n      pop\n      pop\n      pop\n      pop\n      pop\n      dup2\n      jump\t// out\n        /* \"Solidity/DataStorage.sol\":2116:2265  function etherUnit() external pure returns(uint) {... */\n    tag_37:\n        /* \"Solidity/DataStorage.sol\":2159:2163  uint */\n      0x00\n        /* \"Solidity/DataStorage.sol\":2190:2194  1e18 */\n      0x0de0b6b3a7640000\n        /* \"Solidity/DataStorage.sol\":2179:2186  1 ether */\n      dup1\n        /* \"Solidity/DataStorage.sol\":2179:2194  1 ether == 1e18 */\n      eq\n        /* \"Solidity/DataStorage.sol\":2172:2195  assert(1 ether == 1e18) */\n      tag_64\n      jumpi\n      tag_65\n      tag_45\n      jump\t// in\n    tag_65:\n    tag_64:\n        /* \"Solidity/DataStorage.sol\":2220:2239  1000000000000000000 */\n      0x0de0b6b3a7640000\n        /* \"Solidity/DataStorage.sol\":2209:2216  1 ether */\n      dup1\n        /* \"Solidity/DataStorage.sol\":2209:2239  1 ether == 1000000000000000000 */\n      eq\n        /* \"Solidity/DataStorage.sol\":2202:2240  assert(1 ether == 1000000000000000000) */\n      tag_66\n      jumpi\n      tag_67\n      tag_45\n      jump\t// in\n    tag_67:\n    tag_66:\n        /* \"Solidity/DataStorage.sol\":2254:2261  1 ether */\n      0x0de0b6b3a7640000\n        /* \"Solidity/DataStorage.sol\":2247:2261  return 1 ether */\n      swap1\n      pop\n        /* \"Solidity/DataStorage.sol\":2116:2265  function etherUnit() external pure returns(uint) {... */\n      swap1\n      jump\t// out\n        /* \"Solidity/DataStorage.sol\":1420:1549  function bar() external pure returns(uint zz1){... */\n    tag_40:\n        /* \"Solidity/DataStorage.sol\":1457:1465  uint zz1 */\n      0x00\n        /* \"Solidity/DataStorage.sol\":1473:1480  uint xx */\n      dup1\n        /* \"Solidity/DataStorage.sol\":1483:1484  1 */\n      0x01\n        /* \"Solidity/DataStorage.sol\":1473:1484  uint xx = 1 */\n      swap1\n      pop\n        /* \"Solidity/DataStorage.sol\":1491:1498  uint yy */\n      0x00\n        /* \"Solidity/DataStorage.sol\":1501:1502  3 */\n      0x03\n        /* \"Solidity/DataStorage.sol\":1491:1502  uint yy = 3 */\n      swap1\n      pop\n        /* \"Solidity/DataStorage.sol\":1509:1517  uint zz2 */\n      0x00\n        /* \"Solidity/DataStorage.sol\":1525:1527  yy */\n      dup2\n        /* \"Solidity/DataStorage.sol\":1520:1522  xx */\n      dup4\n        /* \"Solidity/DataStorage.sol\":1520:1527  xx + yy */\n      tag_69\n      swap2\n      swap1\n      tag_70\n      jump\t// in\n    tag_69:\n        /* \"Solidity/DataStorage.sol\":1509:1527  uint zz2 = xx + yy */\n      swap1\n      pop\n        /* \"Solidity/DataStorage.sol\":1541:1544  zz2 */\n      dup1\n        /* \"Solidity/DataStorage.sol\":1534:1545  return(zz2) */\n      swap4\n      pop\n      pop\n      pop\n      pop\n        /* \"Solidity/DataStorage.sol\":1420:1549  function bar() external pure returns(uint zz1){... */\n      swap1\n      jump\t// out\n        /* \"#utility.yul\":7:84   */\n    tag_71:\n        /* \"#utility.yul\":44:51   */\n      0x00\n        /* \"#utility.yul\":73:78   */\n      dup2\n        /* \"#utility.yul\":62:78   */\n      swap1\n      pop\n        /* \"#utility.yul\":7:84   */\n      swap2\n      swap1\n      pop\n      jump\t// out\n        /* \"#utility.yul\":90:208   */\n    tag_72:\n        /* \"#utility.yul\":177:201   */\n      tag_105\n        /* \"#utility.yul\":195:200   */\n      dup2\n        /* \"#utility.yul\":177:201   */\n      tag_71\n      jump\t// in\n    tag_105:\n        /* \"#utility.yul\":172:175   */\n      dup3\n        /* \"#utility.yul\":165:202   */\n      mstore\n        /* \"#utility.yul\":90:208   */\n      pop\n      pop\n      jump\t// out\n        /* \"#utility.yul\":214:436   */\n    tag_16:\n        /* \"#utility.yul\":307:311   */\n      0x00\n        /* \"#utility.yul\":345:347   */\n      0x20\n        /* \"#utility.yul\":334:343   */\n      dup3\n        /* \"#utility.yul\":330:348   */\n      add\n        /* \"#utility.yul\":322:348   */\n      swap1\n      pop\n        /* \"#utility.yul\":358:429   */\n      tag_107\n        /* \"#utility.yul\":426:427   */\n      0x00\n        /* \"#utility.yul\":415:424   */\n      dup4\n        /* \"#utility.yul\":411:428   */\n      add\n        /* \"#utility.yul\":402:408   */\n      dup5\n        /* \"#utility.yul\":358:429   */\n      tag_72\n      jump\t// in\n    tag_107:\n        /* \"#utility.yul\":214:436   */\n      swap3\n      swap2\n      pop\n      pop\n      jump\t// out\n        /* \"#utility.yul\":442:568   */\n    tag_73:\n        /* \"#utility.yul\":479:486   */\n      0x00\n        /* \"#utility.yul\":519:561   */\n      0xffffffffffffffffffffffffffffffffffffffff\n        /* \"#utility.yul\":512:517   */\n      dup3\n        /* \"#utility.yul\":508:562   */\n      and\n        /* \"#utility.yul\":497:562   */\n      swap1\n      pop\n        /* \"#utility.yul\":442:568   */\n      swap2\n      swap1\n      pop\n      jump\t// out\n        /* \"#utility.yul\":574:670   */\n    tag_74:\n        /* \"#utility.yul\":611:618   */\n      0x00\n        /* \"#utility.yul\":640:664   */\n      tag_110\n        /* \"#utility.yul\":658:663   */\n      dup3\n        /* \"#utility.yul\":640:664   */\n      tag_73\n      jump\t// in\n    tag_110:\n        /* \"#utility.yul\":629:664   */\n      swap1\n      pop\n        /* \"#utility.yul\":574:670   */\n      swap2\n      swap1\n      pop\n      jump\t// out\n        /* \"#utility.yul\":676:794   */\n    tag_75:\n        /* \"#utility.yul\":763:787   */\n      tag_112\n        /* \"#utility.yul\":781:786   */\n      dup2\n        /* \"#utility.yul\":763:787   */\n      tag_74\n      jump\t// in\n    tag_112:\n        /* \"#utility.yul\":758:761   */\n      dup3\n        /* \"#utility.yul\":751:788   */\n      mstore\n        /* \"#utility.yul\":676:794   */\n      pop\n      pop\n      jump\t// out\n        /* \"#utility.yul\":800:898   */\n    tag_76:\n        /* \"#utility.yul\":851:857   */\n      0x00\n        /* \"#utility.yul\":885:890   */\n      dup2\n        /* \"#utility.yul\":879:891   */\n      mload\n        /* \"#utility.yul\":869:891   */\n      swap1\n      pop\n        /* \"#utility.yul\":800:898   */\n      swap2\n      swap1\n      pop\n      jump\t// out\n        /* \"#utility.yul\":904:1072   */\n    tag_77:\n        /* \"#utility.yul\":987:998   */\n      0x00\n        /* \"#utility.yul\":1021:1027   */\n      dup3\n        /* \"#utility.yul\":1016:1019   */\n      dup3\n        /* \"#utility.yul\":1009:1028   */\n      mstore\n        /* \"#utility.yul\":1061:1065   */\n      0x20\n        /* \"#utility.yul\":1056:1059   */\n      dup3\n        /* \"#utility.yul\":1052:1066   */\n      add\n        /* \"#utility.yul\":1037:1066   */\n      swap1\n      pop\n        /* \"#utility.yul\":904:1072   */\n      swap3\n      swap2\n      pop\n      pop\n      jump\t// out\n        /* \"#utility.yul\":1078:1217   */\n    tag_78:\n        /* \"#utility.yul\":1167:1173   */\n      dup3\n        /* \"#utility.yul\":1162:1165   */\n      dup2\n        /* \"#utility.yul\":1157:1160   */\n      dup4\n        /* \"#utility.yul\":1151:1174   */\n      mcopy\n        /* \"#utility.yul\":1208:1209   */\n      0x00\n        /* \"#utility.yul\":1199:1205   */\n      dup4\n        /* \"#utility.yul\":1194:1197   */\n      dup4\n        /* \"#utility.yul\":1190:1206   */\n      add\n        /* \"#utility.yul\":1183:1210   */\n      mstore\n        /* \"#utility.yul\":1078:1217   */\n      pop\n      pop\n      pop\n      jump\t// out\n        /* \"#utility.yul\":1223:1325   */\n    tag_79:\n        /* \"#utility.yul\":1264:1270   */\n      0x00\n        /* \"#utility.yul\":1315:1317   */\n      0x1f\n        /* \"#utility.yul\":1311:1318   */\n      not\n        /* \"#utility.yul\":1306:1308   */\n      0x1f\n        /* \"#utility.yul\":1299:1304   */\n      dup4\n        /* \"#utility.yul\":1295:1309   */\n      add\n        /* \"#utility.yul\":1291:1319   */\n      and\n        /* \"#utility.yul\":1281:1319   */\n      swap1\n      pop\n        /* \"#utility.yul\":1223:1325   */\n      swap2\n      swap1\n      pop\n      jump\t// out\n        /* \"#utility.yul\":1331:1704   */\n    tag_80:\n        /* \"#utility.yul\":1417:1420   */\n      0x00\n        /* \"#utility.yul\":1445:1483   */\n      tag_118\n        /* \"#utility.yul\":1477:1482   */\n      dup3\n        /* \"#utility.yul\":1445:1483   */\n      tag_76\n      jump\t// in\n    tag_118:\n        /* \"#utility.yul\":1499:1569   */\n      tag_119\n        /* \"#utility.yul\":1562:1568   */\n      dup2\n        /* \"#utility.yul\":1557:1560   */\n      dup6\n        /* \"#utility.yul\":1499:1569   */\n      tag_77\n      jump\t// in\n    tag_119:\n        /* \"#utility.yul\":1492:1569   */\n      swap4\n      pop\n        /* \"#utility.yul\":1578:1643   */\n      tag_120\n        /* \"#utility.yul\":1636:1642   */\n      dup2\n        /* \"#utility.yul\":1631:1634   */\n      dup6\n        /* \"#utility.yul\":1624:1628   */\n      0x20\n        /* \"#utility.yul\":1617:1622   */\n      dup7\n        /* \"#utility.yul\":1613:1629   */\n      add\n        /* \"#utility.yul\":1578:1643   */\n      tag_78\n      jump\t// in\n    tag_120:\n        /* \"#utility.yul\":1668:1697   */\n      tag_121\n        /* \"#utility.yul\":1690:1696   */\n      dup2\n        /* \"#utility.yul\":1668:1697   */\n      tag_79\n      jump\t// in\n    tag_121:\n        /* \"#utility.yul\":1663:1666   */\n      dup5\n        /* \"#utility.yul\":1659:1698   */\n      add\n        /* \"#utility.yul\":1652:1698   */\n      swap2\n      pop\n        /* \"#utility.yul\":1421:1704   */\n      pop\n        /* \"#utility.yul\":1331:1704   */\n      swap3\n      swap2\n      pop\n      pop\n      jump\t// out\n        /* \"#utility.yul\":1710:2239   */\n    tag_23:\n        /* \"#utility.yul\":1877:1881   */\n      0x00\n        /* \"#utility.yul\":1915:1917   */\n      0x60\n        /* \"#utility.yul\":1904:1913   */\n      dup3\n        /* \"#utility.yul\":1900:1918   */\n      add\n        /* \"#utility.yul\":1892:1918   */\n      swap1\n      pop\n        /* \"#utility.yul\":1928:1999   */\n      tag_123\n        /* \"#utility.yul\":1996:1997   */\n      0x00\n        /* \"#utility.yul\":1985:1994   */\n      dup4\n        /* \"#utility.yul\":1981:1998   */\n      add\n        /* \"#utility.yul\":1972:1978   */\n      dup7\n        /* \"#utility.yul\":1928:1999   */\n      tag_75\n      jump\t// in\n    tag_123:\n        /* \"#utility.yul\":2009:2081   */\n      tag_124\n        /* \"#utility.yul\":2077:2079   */\n      0x20\n        /* \"#utility.yul\":2066:2075   */\n      dup4\n        /* \"#utility.yul\":2062:2080   */\n      add\n        /* \"#utility.yul\":2053:2059   */\n      dup6\n        /* \"#utility.yul\":2009:2081   */\n      tag_72\n      jump\t// in\n    tag_124:\n        /* \"#utility.yul\":2128:2137   */\n      dup2\n        /* \"#utility.yul\":2122:2126   */\n      dup2\n        /* \"#utility.yul\":2118:2138   */\n      sub\n        /* \"#utility.yul\":2113:2115   */\n      0x40\n        /* \"#utility.yul\":2102:2111   */\n      dup4\n        /* \"#utility.yul\":2098:2116   */\n      add\n        /* \"#utility.yul\":2091:2139   */\n      mstore\n        /* \"#utility.yul\":2156:2232   */\n      tag_125\n        /* \"#utility.yul\":2227:2231   */\n      dup2\n        /* \"#utility.yul\":2218:2224   */\n      dup5\n        /* \"#utility.yul\":2156:2232   */\n      tag_80\n      jump\t// in\n    tag_125:\n        /* \"#utility.yul\":2148:2232   */\n      swap1\n      pop\n        /* \"#utility.yul\":1710:2239   */\n      swap5\n      swap4\n      pop\n      pop\n      pop\n      pop\n      jump\t// out\n        /* \"#utility.yul\":2245:2344   */\n    tag_81:\n        /* \"#utility.yul\":2297:2303   */\n      0x00\n        /* \"#utility.yul\":2331:2336   */\n      dup2\n        /* \"#utility.yul\":2325:2337   */\n      mload\n        /* \"#utility.yul\":2315:2337   */\n      swap1\n      pop\n        /* \"#utility.yul\":2245:2344   */\n      swap2\n      swap1\n      pop\n      jump\t// out\n        /* \"#utility.yul\":2350:2519   */\n    tag_82:\n        /* \"#utility.yul\":2434:2445   */\n      0x00\n        /* \"#utility.yul\":2468:2474   */\n      dup3\n        /* \"#utility.yul\":2463:2466   */\n      dup3\n        /* \"#utility.yul\":2456:2475   */\n      mstore\n        /* \"#utility.yul\":2508:2512   */\n      0x20\n        /* \"#utility.yul\":2503:2506   */\n      dup3\n        /* \"#utility.yul\":2499:2513   */\n      add\n        /* \"#utility.yul\":2484:2513   */\n      swap1\n      pop\n        /* \"#utility.yul\":2350:2519   */\n      swap3\n      swap2\n      pop\n      pop\n      jump\t// out\n        /* \"#utility.yul\":2525:2902   */\n    tag_83:\n        /* \"#utility.yul\":2613:2616   */\n      0x00\n        /* \"#utility.yul\":2641:2680   */\n      tag_129\n        /* \"#utility.yul\":2674:2679   */\n      dup3\n        /* \"#utility.yul\":2641:2680   */\n      tag_81\n      jump\t// in\n    tag_129:\n        /* \"#utility.yul\":2696:2767   */\n      tag_130\n        /* \"#utility.yul\":2760:2766   */\n      dup2\n        /* \"#utility.yul\":2755:2758   */\n      dup6\n        /* \"#utility.yul\":2696:2767   */\n      tag_82\n      jump\t// in\n    tag_130:\n        /* \"#utility.yul\":2689:2767   */\n      swap4\n      pop\n        /* \"#utility.yul\":2776:2841   */\n      tag_131\n        /* \"#utility.yul\":2834:2840   */\n      dup2\n        /* \"#utility.yul\":2829:2832   */\n      dup6\n        /* \"#utility.yul\":2822:2826   */\n      0x20\n        /* \"#utility.yul\":2815:2820   */\n      dup7\n        /* \"#utility.yul\":2811:2827   */\n      add\n        /* \"#utility.yul\":2776:2841   */\n      tag_78\n      jump\t// in\n    tag_131:\n        /* \"#utility.yul\":2866:2895   */\n      tag_132\n        /* \"#utility.yul\":2888:2894   */\n      dup2\n        /* \"#utility.yul\":2866:2895   */\n      tag_79\n      jump\t// in\n    tag_132:\n        /* \"#utility.yul\":2861:2864   */\n      dup5\n        /* \"#utility.yul\":2857:2896   */\n      add\n        /* \"#utility.yul\":2850:2896   */\n      swap2\n      pop\n        /* \"#utility.yul\":2617:2902   */\n      pop\n        /* \"#utility.yul\":2525:2902   */\n      swap3\n      swap2\n      pop\n      pop\n      jump\t// out\n        /* \"#utility.yul\":2908:3221   */\n    tag_35:\n        /* \"#utility.yul\":3021:3025   */\n      0x00\n        /* \"#utility.yul\":3059:3061   */\n      0x20\n        /* \"#utility.yul\":3048:3057   */\n      dup3\n        /* \"#utility.yul\":3044:3062   */\n      add\n        /* \"#utility.yul\":3036:3062   */\n      swap1\n      pop\n        /* \"#utility.yul\":3108:3117   */\n      dup2\n        /* \"#utility.yul\":3102:3106   */\n      dup2\n        /* \"#utility.yul\":3098:3118   */\n      sub\n        /* \"#utility.yul\":3094:3095   */\n      0x00\n        /* \"#utility.yul\":3083:3092   */\n      dup4\n        /* \"#utility.yul\":3079:3096   */\n      add\n        /* \"#utility.yul\":3072:3119   */\n      mstore\n        /* \"#utility.yul\":3136:3214   */\n      tag_134\n        /* \"#utility.yul\":3209:3213   */\n      dup2\n        /* \"#utility.yul\":3200:3206   */\n      dup5\n        /* \"#utility.yul\":3136:3214   */\n      tag_83\n      jump\t// in\n    tag_134:\n        /* \"#utility.yul\":3128:3214   */\n      swap1\n      pop\n        /* \"#utility.yul\":2908:3221   */\n      swap3\n      swap2\n      pop\n      pop\n      jump\t// out\n        /* \"#utility.yul\":3227:3407   */\n    tag_45:\n        /* \"#utility.yul\":3275:3352   */\n      0x4e487b7100000000000000000000000000000000000000000000000000000000\n        /* \"#utility.yul\":3272:3273   */\n      0x00\n        /* \"#utility.yul\":3265:3353   */\n      mstore\n        /* \"#utility.yul\":3372:3376   */\n      0x01\n        /* \"#utility.yul\":3369:3370   */\n      0x04\n        /* \"#utility.yul\":3362:3377   */\n      mstore\n        /* \"#utility.yul\":3396:3400   */\n      0x24\n        /* \"#utility.yul\":3393:3394   */\n      0x00\n        /* \"#utility.yul\":3386:3401   */\n      revert\n        /* \"#utility.yul\":3413:3593   */\n    tag_84:\n        /* \"#utility.yul\":3461:3538   */\n      0x4e487b7100000000000000000000000000000000000000000000000000000000\n        /* \"#utility.yul\":3458:3459   */\n      0x00\n        /* \"#utility.yul\":3451:3539   */\n      mstore\n        /* \"#utility.yul\":3558:3562   */\n      0x41\n        /* \"#utility.yul\":3555:3556   */\n      0x04\n        /* \"#utility.yul\":3548:3563   */\n      mstore\n        /* \"#utility.yul\":3582:3586   */\n      0x24\n        /* \"#utility.yul\":3579:3580   */\n      0x00\n        /* \"#utility.yul\":3572:3587   */\n      revert\n        /* \"#utility.yul\":3599:3779   */\n    tag_85:\n        /* \"#utility.yul\":3647:3724   */\n      0x4e487b7100000000000000000000000000000000000000000000000000000000\n        /* \"#utility.yul\":3644:3645   */\n      0x00\n        /* \"#utility.yul\":3637:3725   */\n      mstore\n        /* \"#utility.yul\":3744:3748   */\n      0x22\n        /* \"#utility.yul\":3741:3742   */\n      0x04\n        /* \"#utility.yul\":3734:3749   */\n      mstore\n        /* \"#utility.yul\":3768:3772   */\n      0x24\n        /* \"#utility.yul\":3765:3766   */\n      0x00\n        /* \"#utility.yul\":3758:3773   */\n      revert\n        /* \"#utility.yul\":3785:4105   */\n    tag_58:\n        /* \"#utility.yul\":3829:3835   */\n      0x00\n        /* \"#utility.yul\":3866:3867   */\n      0x02\n        /* \"#utility.yul\":3860:3864   */\n      dup3\n        /* \"#utility.yul\":3856:3868   */\n      div\n        /* \"#utility.yul\":3846:3868   */\n      swap1\n      pop\n        /* \"#utility.yul\":3913:3914   */\n      0x01\n        /* \"#utility.yul\":3907:3911   */\n      dup3\n        /* \"#utility.yul\":3903:3915   */\n      and\n        /* \"#utility.yul\":3934:3952   */\n      dup1\n        /* \"#utility.yul\":3924:4005   */\n      tag_139\n      jumpi\n        /* \"#utility.yul\":3990:3994   */\n      0x7f\n        /* \"#utility.yul\":3982:3988   */\n      dup3\n        /* \"#utility.yul\":3978:3995   */\n      and\n        /* \"#utility.yul\":3968:3995   */\n      swap2\n      pop\n        /* \"#utility.yul\":3924:4005   */\n    tag_139:\n        /* \"#utility.yul\":4052:4054   */\n      0x20\n        /* \"#utility.yul\":4044:4050   */\n      dup3\n        /* \"#utility.yul\":4041:4055   */\n      lt\n        /* \"#utility.yul\":4021:4039   */\n      dup2\n        /* \"#utility.yul\":4018:4056   */\n      sub\n        /* \"#utility.yul\":4015:4099   */\n      tag_140\n      jumpi\n        /* \"#utility.yul\":4071:4089   */\n      tag_141\n      tag_85\n      jump\t// in\n    tag_141:\n        /* \"#utility.yul\":4015:4099   */\n    tag_140:\n        /* \"#utility.yul\":3836:4105   */\n      pop\n        /* \"#utility.yul\":3785:4105   */\n      swap2\n      swap1\n      pop\n      jump\t// out\n        /* \"#utility.yul\":4111:4252   */\n    tag_86:\n        /* \"#utility.yul\":4160:4164   */\n      0x00\n        /* \"#utility.yul\":4183:4186   */\n      dup2\n        /* \"#utility.yul\":4175:4186   */\n      swap1\n      pop\n        /* \"#utility.yul\":4206:4209   */\n      dup2\n        /* \"#utility.yul\":4203:4204   */\n      0x00\n        /* \"#utility.yul\":4196:4210   */\n      mstore\n        /* \"#utility.yul\":4240:4244   */\n      0x20\n        /* \"#utility.yul\":4237:4238   */\n      0x00\n        /* \"#utility.yul\":4227:4245   */\n      keccak256\n        /* \"#utility.yul\":4219:4245   */\n      swap1\n      pop\n        /* \"#utility.yul\":4111:4252   */\n      swap2\n      swap1\n      pop\n      jump\t// out\n        /* \"#utility.yul\":4258:4351   */\n    tag_87:\n        /* \"#utility.yul\":4295:4301   */\n      0x00\n        /* \"#utility.yul\":4342:4344   */\n      0x20\n        /* \"#utility.yul\":4337:4339   */\n      0x1f\n        /* \"#utility.yul\":4330:4335   */\n      dup4\n        /* \"#utility.yul\":4326:4340   */\n      add\n        /* \"#utility.yul\":4322:4345   */\n      div\n        /* \"#utility.yul\":4312:4345   */\n      swap1\n      pop\n        /* \"#utility.yul\":4258:4351   */\n      swap2\n      swap1\n      pop\n      jump\t// out\n        /* \"#utility.yul\":4357:4464   */\n    tag_88:\n        /* \"#utility.yul\":4401:4409   */\n      0x00\n        /* \"#utility.yul\":4451:4456   */\n      dup3\n        /* \"#utility.yul\":4445:4449   */\n      dup3\n        /* \"#utility.yul\":4441:4457   */\n      shl\n        /* \"#utility.yul\":4420:4457   */\n      swap1\n      pop\n        /* \"#utility.yul\":4357:4464   */\n      swap3\n      swap2\n      pop\n      pop\n      jump\t// out\n        /* \"#utility.yul\":4470:4863   */\n    tag_89:\n        /* \"#utility.yul\":4539:4545   */\n      0x00\n        /* \"#utility.yul\":4589:4590   */\n      0x08\n        /* \"#utility.yul\":4577:4587   */\n      dup4\n        /* \"#utility.yul\":4573:4591   */\n      mul\n        /* \"#utility.yul\":4612:4709   */\n      tag_146\n        /* \"#utility.yul\":4642:4708   */\n      0xffffffffffffffffffffffffffffffffffffffffffffffffffffffffffffffff\n        /* \"#utility.yul\":4631:4640   */\n      dup3\n        /* \"#utility.yul\":4612:4709   */\n      tag_88\n      jump\t// in\n    tag_146:\n        /* \"#utility.yul\":4730:4769   */\n      tag_147\n        /* \"#utility.yul\":4760:4768   */\n      dup7\n        /* \"#utility.yul\":4749:4758   */\n      dup4\n        /* \"#utility.yul\":4730:4769   */\n      tag_88\n      jump\t// in\n    tag_147:\n        /* \"#utility.yul\":4718:4769   */\n      swap6\n      pop\n        /* \"#utility.yul\":4802:4806   */\n      dup1\n        /* \"#utility.yul\":4798:4807   */\n      not\n        /* \"#utility.yul\":4791:4796   */\n      dup5\n        /* \"#utility.yul\":4787:4808   */\n      and\n        /* \"#utility.yul\":4778:4808   */\n      swap4\n      pop\n        /* \"#utility.yul\":4851:4855   */\n      dup1\n        /* \"#utility.yul\":4841:4849   */\n      dup7\n        /* \"#utility.yul\":4837:4856   */\n      and\n        /* \"#utility.yul\":4830:4835   */\n      dup5\n        /* \"#utility.yul\":4827:4857   */\n      or\n        /* \"#utility.yul\":4817:4857   */\n      swap3\n      pop\n        /* \"#utility.yul\":4546:4863   */\n      pop\n      pop\n        /* \"#utility.yul\":4470:4863   */\n      swap4\n      swap3\n      pop\n      pop\n      pop\n      jump\t// out\n        /* \"#utility.yul\":4869:4929   */\n    tag_90:\n        /* \"#utility.yul\":4897:4900   */\n      0x00\n        /* \"#utility.yul\":4918:4923   */\n      dup2\n        /* \"#utility.yul\":4911:4923   */\n      swap1\n      pop\n        /* \"#utility.yul\":4869:4929   */\n      swap2\n      swap1\n      pop\n      jump\t// out\n        /* \"#utility.yul\":4935:5077   */\n    tag_91:\n        /* \"#utility.yul\":4985:4994   */\n      0x00\n        /* \"#utility.yul\":5018:5071   */\n      tag_150\n        /* \"#utility.yul\":5036:5070   */\n      tag_151\n        /* \"#utility.yul\":5045:5069   */\n      tag_152\n        /* \"#utility.yul\":5063:5068   */\n      dup5\n        /* \"#utility.yul\":5045:5069   */\n      tag_71\n      jump\t// in\n    tag_152:\n        /* \"#utility.yul\":5036:5070   */\n      tag_90\n      jump\t// in\n    tag_151:\n        /* \"#utility.yul\":5018:5071   */\n      tag_71\n      jump\t// in\n    tag_150:\n        /* \"#utility.yul\":5005:5071   */\n      swap1\n      pop\n        /* \"#utility.yul\":4935:5077   */\n      swap2\n      swap1\n      pop\n      jump\t// out\n        /* \"#utility.yul\":5083:5158   */\n    tag_92:\n        /* \"#utility.yul\":5126:5129   */\n      0x00\n        /* \"#utility.yul\":5147:5152   */\n      dup2\n        /* \"#utility.yul\":5140:5152   */\n      swap1\n      pop\n        /* \"#utility.yul\":5083:5158   */\n      swap2\n      swap1\n      pop\n      jump\t// out\n        /* \"#utility.yul\":5164:5433   */\n    tag_93:\n        /* \"#utility.yul\":5274:5313   */\n      tag_155\n        /* \"#utility.yul\":5305:5312   */\n      dup4\n        /* \"#utility.yul\":5274:5313   */\n      tag_91\n      jump\t// in\n    tag_155:\n        /* \"#utility.yul\":5335:5426   */\n      tag_156\n        /* \"#utility.yul\":5384:5425   */\n      tag_157\n        /* \"#utility.yul\":5408:5424   */\n      dup3\n        /* \"#utility.yul\":5384:5425   */\n      tag_92\n      jump\t// in\n    tag_157:\n        /* \"#utility.yul\":5376:5382   */\n      dup5\n        /* \"#utility.yul\":5369:5373   */\n      dup5\n        /* \"#utility.yul\":5363:5374   */\n      sload\n        /* \"#utility.yul\":5335:5426   */\n      tag_89\n      jump\t// in\n    tag_156:\n        /* \"#utility.yul\":5329:5333   */\n      dup3\n        /* \"#utility.yul\":5322:5427   */\n      sstore\n        /* \"#utility.yul\":5240:5433   */\n      pop\n        /* \"#utility.yul\":5164:5433   */\n      pop\n      pop\n      pop\n      jump\t// out\n        /* \"#utility.yul\":5439:5512   */\n    tag_94:\n        /* \"#utility.yul\":5484:5487   */\n      0x00\n        /* \"#utility.yul\":5439:5512   */\n      swap1\n      jump\t// out\n        /* \"#utility.yul\":5518:5707   */\n    tag_95:\n        /* \"#utility.yul\":5595:5627   */\n      tag_160\n      tag_94\n      jump\t// in\n    tag_160:\n        /* \"#utility.yul\":5636:5701   */\n      tag_161\n        /* \"#utility.yul\":5694:5700   */\n      dup2\n        /* \"#utility.yul\":5686:5692   */\n      dup5\n        /* \"#utility.yul\":5680:5684   */\n      dup5\n        /* \"#utility.yul\":5636:5701   */\n      tag_93\n      jump\t// in\n    tag_161:\n        /* \"#utility.yul\":5571:5707   */\n      pop\n        /* \"#utility.yul\":5518:5707   */\n      pop\n      pop\n      jump\t// out\n        /* \"#utility.yul\":5713:5899   */\n    tag_96:\n        /* \"#utility.yul\":5773:5893   */\n    tag_163:\n        /* \"#utility.yul\":5790:5793   */\n      dup2\n        /* \"#utility.yul\":5783:5788   */\n      dup2\n        /* \"#utility.yul\":5780:5794   */\n      lt\n        /* \"#utility.yul\":5773:5893   */\n      iszero\n      tag_165\n      jumpi\n        /* \"#utility.yul\":5844:5883   */\n      tag_166\n        /* \"#utility.yul\":5881:5882   */\n      0x00\n        /* \"#utility.yul\":5874:5879   */\n      dup3\n        /* \"#utility.yul\":5844:5883   */\n      tag_95\n      jump\t// in\n    tag_166:\n        /* \"#utility.yul\":5817:5818   */\n      0x01\n        /* \"#utility.yul\":5810:5815   */\n      dup2\n        /* \"#utility.yul\":5806:5819   */\n      add\n        /* \"#utility.yul\":5797:5819   */\n      swap1\n      pop\n        /* \"#utility.yul\":5773:5893   */\n      jump(tag_163)\n    tag_165:\n        /* \"#utility.yul\":5713:5899   */\n      pop\n      pop\n      jump\t// out\n        /* \"#utility.yul\":5905:6448   */\n    tag_97:\n        /* \"#utility.yul\":6006:6008   */\n      0x1f\n        /* \"#utility.yul\":6001:6004   */\n      dup3\n        /* \"#utility.yul\":5998:6009   */\n      gt\n        /* \"#utility.yul\":5995:6441   */\n      iszero\n      tag_168\n      jumpi\n        /* \"#utility.yul\":6040:6078   */\n      tag_169\n        /* \"#utility.yul\":6072:6077   */\n      dup2\n        /* \"#utility.yul\":6040:6078   */\n      tag_86\n      jump\t// in\n    tag_169:\n        /* \"#utility.yul\":6124:6153   */\n      tag_170\n        /* \"#utility.yul\":6142:6152   */\n      dup5\n        /* \"#utility.yul\":6124:6153   */\n      tag_87\n      jump\t// in\n    tag_170:\n        /* \"#utility.yul\":6114:6122   */\n      dup2\n        /* \"#utility.yul\":6110:6154   */\n      add\n        /* \"#utility.yul\":6307:6309   */\n      0x20\n        /* \"#utility.yul\":6295:6305   */\n      dup6\n        /* \"#utility.yul\":6292:6310   */\n      lt\n        /* \"#utility.yul\":6289:6338   */\n      iszero\n      tag_171\n      jumpi\n        /* \"#utility.yul\":6328:6336   */\n      dup2\n        /* \"#utility.yul\":6313:6336   */\n      swap1\n      pop\n        /* \"#utility.yul\":6289:6338   */\n    tag_171:\n        /* \"#utility.yul\":6351:6431   */\n      tag_172\n        /* \"#utility.yul\":6407:6429   */\n      tag_173\n        /* \"#utility.yul\":6425:6428   */\n      dup6\n        /* \"#utility.yul\":6407:6429   */\n      tag_87\n      jump\t// in\n    tag_173:\n        /* \"#utility.yul\":6397:6405   */\n      dup4\n        /* \"#utility.yul\":6393:6430   */\n      add\n        /* \"#utility.yul\":6380:6391   */\n      dup3\n        /* \"#utility.yul\":6351:6431   */\n      tag_96\n      jump\t// in\n    tag_172:\n        /* \"#utility.yul\":6010:6441   */\n      pop\n      pop\n        /* \"#utility.yul\":5995:6441   */\n    tag_168:\n        /* \"#utility.yul\":5905:6448   */\n      pop\n      pop\n      pop\n      jump\t// out\n        /* \"#utility.yul\":6454:6571   */\n    tag_98:\n        /* \"#utility.yul\":6508:6516   */\n      0x00\n        /* \"#utility.yul\":6558:6563   */\n      dup3\n        /* \"#utility.yul\":6552:6556   */\n      dup3\n        /* \"#utility.yul\":6548:6564   */\n      shr\n        /* \"#utility.yul\":6527:6564   */\n      swap1\n      pop\n        /* \"#utility.yul\":6454:6571   */\n      swap3\n      swap2\n      pop\n      pop\n      jump\t// out\n        /* \"#utility.yul\":6577:6746   */\n    tag_99:\n        /* \"#utility.yul\":6621:6627   */\n      0x00\n        /* \"#utility.yul\":6654:6705   */\n      tag_176\n        /* \"#utility.yul\":6702:6703   */\n      0x00\n        /* \"#utility.yul\":6698:6704   */\n      not\n        /* \"#utility.yul\":6690:6695   */\n      dup5\n        /* \"#utility.yul\":6687:6688   */\n      0x08\n        /* \"#utility.yul\":6683:6696   */\n      mul\n        /* \"#utility.yul\":6654:6705   */\n      tag_98\n      jump\t// in\n    tag_176:\n        /* \"#utility.yul\":6650:6706   */\n      not\n        /* \"#utility.yul\":6735:6739   */\n      dup1\n        /* \"#utility.yul\":6729:6733   */\n      dup4\n        /* \"#utility.yul\":6725:6740   */\n      and\n        /* \"#utility.yul\":6715:6740   */\n      swap2\n      pop\n        /* \"#utility.yul\":6628:6746   */\n      pop\n        /* \"#utility.yul\":6577:6746   */\n      swap3\n      swap2\n      pop\n      pop\n      jump\t// out\n        /* \"#utility.yul\":6751:7046   */\n    tag_100:\n        /* \"#utility.yul\":6827:6831   */\n      0x00\n        /* \"#utility.yul\":6973:7002   */\n      tag_178\n        /* \"#utility.yul\":6998:7001   */\n      dup4\n        /* \"#utility.yul\":6992:6996   */\n      dup4\n        /* \"#utility.yul\":6973:7002   */\n      tag_99\n      jump\t// in\n    tag_178:\n        /* \"#utility.yul\":6965:7002   */\n      swap2\n      pop\n        /* \"#utility.yul\":7035:7038   */\n      dup3\n        /* \"#utility.yul\":7032:7033   */\n      0x02\n        /* \"#utility.yul\":7028:7039   */\n      mul\n        /* \"#utility.yul\":7022:7026   */\n      dup3\n        /* \"#utility.yul\":7019:7040   */\n      or\n        /* \"#utility.yul\":7011:7040   */\n      swap1\n      pop\n        /* \"#utility.yul\":6751:7046   */\n      swap3\n      swap2\n      pop\n      pop\n      jump\t// out\n        /* \"#utility.yul\":7051:8446   */\n    tag_56:\n        /* \"#utility.yul\":7168:7205   */\n      tag_180\n        /* \"#utility.yul\":7201:7204   */\n      dup3\n        /* \"#utility.yul\":7168:7205   */\n      tag_81\n      jump\t// in\n    tag_180:\n        /* \"#utility.yul\":7270:7288   */\n      0xffffffffffffffff\n        /* \"#utility.yul\":7262:7268   */\n      dup2\n        /* \"#utility.yul\":7259:7289   */\n      gt\n        /* \"#utility.yul\":7256:7312   */\n      iszero\n      tag_181\n      jumpi\n        /* \"#utility.yul\":7292:7310   */\n      tag_182\n      tag_84\n      jump\t// in\n    tag_182:\n        /* \"#utility.yul\":7256:7312   */\n    tag_181:\n        /* \"#utility.yul\":7336:7374   */\n      tag_183\n        /* \"#utility.yul\":7368:7372   */\n      dup3\n        /* \"#utility.yul\":7362:7373   */\n      sload\n        /* \"#utility.yul\":7336:7374   */\n      tag_58\n      jump\t// in\n    tag_183:\n        /* \"#utility.yul\":7421:7488   */\n      tag_184\n        /* \"#utility.yul\":7481:7487   */\n      dup3\n        /* \"#utility.yul\":7473:7479   */\n      dup3\n        /* \"#utility.yul\":7467:7471   */\n      dup6\n        /* \"#utility.yul\":7421:7488   */\n      tag_97\n      jump\t// in\n    tag_184:\n        /* \"#utility.yul\":7515:7516   */\n      0x00\n        /* \"#utility.yul\":7539:7543   */\n      0x20\n        /* \"#utility.yul\":7526:7543   */\n      swap1\n      pop\n        /* \"#utility.yul\":7571:7573   */\n      0x1f\n        /* \"#utility.yul\":7563:7569   */\n      dup4\n        /* \"#utility.yul\":7560:7574   */\n      gt\n        /* \"#utility.yul\":7588:7589   */\n      0x01\n        /* \"#utility.yul\":7583:8201   */\n      dup2\n      eq\n      tag_186\n      jumpi\n        /* \"#utility.yul\":8245:8246   */\n      0x00\n        /* \"#utility.yul\":8262:8268   */\n      dup5\n        /* \"#utility.yul\":8259:8336   */\n      iszero\n      tag_187\n      jumpi\n        /* \"#utility.yul\":8311:8320   */\n      dup3\n        /* \"#utility.yul\":8306:8309   */\n      dup8\n        /* \"#utility.yul\":8302:8321   */\n      add\n        /* \"#utility.yul\":8296:8322   */\n      mload\n        /* \"#utility.yul\":8287:8322   */\n      swap1\n      pop\n        /* \"#utility.yul\":8259:8336   */\n    tag_187:\n        /* \"#utility.yul\":8362:8429   */\n      tag_188\n        /* \"#utility.yul\":8422:8428   */\n      dup6\n        /* \"#utility.yul\":8415:8420   */\n      dup3\n        /* \"#utility.yul\":8362:8429   */\n      tag_100\n      jump\t// in\n    tag_188:\n        /* \"#utility.yul\":8356:8360   */\n      dup7\n        /* \"#utility.yul\":8349:8430   */\n      sstore\n        /* \"#utility.yul\":8218:8440   */\n      pop\n        /* \"#utility.yul\":7553:8440   */\n      jump(tag_185)\n        /* \"#utility.yul\":7583:8201   */\n    tag_186:\n        /* \"#utility.yul\":7635:7639   */\n      0x1f\n        /* \"#utility.yul\":7631:7640   */\n      not\n        /* \"#utility.yul\":7623:7629   */\n      dup5\n        /* \"#utility.yul\":7619:7641   */\n      and\n        /* \"#utility.yul\":7669:7706   */\n      tag_189\n        /* \"#utility.yul\":7701:7705   */\n      dup7\n        /* \"#utility.yul\":7669:7706   */\n      tag_86\n      jump\t// in\n    tag_189:\n        /* \"#utility.yul\":7728:7729   */\n      0x00\n        /* \"#utility.yul\":7742:7950   */\n    tag_190:\n        /* \"#utility.yul\":7756:7763   */\n      dup3\n        /* \"#utility.yul\":7753:7754   */\n      dup2\n        /* \"#utility.yul\":7750:7764   */\n      lt\n        /* \"#utility.yul\":7742:7950   */\n      iszero\n      tag_192\n      jumpi\n        /* \"#utility.yul\":7835:7844   */\n      dup5\n        /* \"#utility.yul\":7830:7833   */\n      dup10\n        /* \"#utility.yul\":7826:7845   */\n      add\n        /* \"#utility.yul\":7820:7846   */\n      mload\n        /* \"#utility.yul\":7812:7818   */\n      dup3\n        /* \"#utility.yul\":7805:7847   */\n      sstore\n        /* \"#utility.yul\":7886:7887   */\n      0x01\n        /* \"#utility.yul\":7878:7884   */\n      dup3\n        /* \"#utility.yul\":7874:7888   */\n      add\n        /* \"#utility.yul\":7864:7888   */\n      swap2\n      pop\n        /* \"#utility.yul\":7933:7935   */\n      0x20\n        /* \"#utility.yul\":7922:7931   */\n      dup6\n        /* \"#utility.yul\":7918:7936   */\n      add\n        /* \"#utility.yul\":7905:7936   */\n      swap5\n      pop\n        /* \"#utility.yul\":7779:7783   */\n      0x20\n        /* \"#utility.yul\":7776:7777   */\n      dup2\n        /* \"#utility.yul\":7772:7784   */\n      add\n        /* \"#utility.yul\":7767:7784   */\n      swap1\n      pop\n        /* \"#utility.yul\":7742:7950   */\n      jump(tag_190)\n    tag_192:\n        /* \"#utility.yul\":7978:7984   */\n      dup7\n        /* \"#utility.yul\":7969:7976   */\n      dup4\n        /* \"#utility.yul\":7966:7985   */\n      lt\n        /* \"#utility.yul\":7963:8142   */\n      iszero\n      tag_193\n      jumpi\n        /* \"#utility.yul\":8036:8045   */\n      dup5\n        /* \"#utility.yul\":8031:8034   */\n      dup10\n        /* \"#utility.yul\":8027:8046   */\n      add\n        /* \"#utility.yul\":8021:8047   */\n      mload\n        /* \"#utility.yul\":8079:8127   */\n      tag_194\n        /* \"#utility.yul\":8121:8125   */\n      0x1f\n        /* \"#utility.yul\":8113:8119   */\n      dup10\n        /* \"#utility.yul\":8109:8126   */\n      and\n        /* \"#utility.yul\":8098:8107   */\n      dup3\n        /* \"#utility.yul\":8079:8127   */\n      tag_99\n      jump\t// in\n    tag_194:\n        /* \"#utility.yul\":8071:8077   */\n      dup4\n        /* \"#utility.yul\":8064:8128   */\n      sstore\n        /* \"#utility.yul\":7986:8142   */\n      pop\n        /* \"#utility.yul\":7963:8142   */\n    tag_193:\n        /* \"#utility.yul\":8188:8189   */\n      0x01\n        /* \"#utility.yul\":8184:8185   */\n      0x02\n        /* \"#utility.yul\":8176:8182   */\n      dup9\n        /* \"#utility.yul\":8172:8186   */\n      mul\n        /* \"#utility.yul\":8168:8190   */\n      add\n        /* \"#utility.yul\":8162:8166   */\n      dup9\n        /* \"#utility.yul\":8155:8191   */\n      sstore\n        /* \"#utility.yul\":7590:8201   */\n      pop\n      pop\n      pop\n        /* \"#utility.yul\":7553:8440   */\n    tag_185:\n      pop\n        /* \"#utility.yul\":7143:8446   */\n      pop\n      pop\n      pop\n        /* \"#utility.yul\":7051:8446   */\n      pop\n      pop\n      jump\t// out\n        /* \"#utility.yul\":8452:8632   */\n    tag_101:\n        /* \"#utility.yul\":8500:8577   */\n      0x4e487b7100000000000000000000000000000000000000000000000000000000\n        /* \"#utility.yul\":8497:8498   */\n      0x00\n        /* \"#utility.yul\":8490:8578   */\n      mstore\n        /* \"#utility.yul\":8597:8601   */\n      0x11\n        /* \"#utility.yul\":8594:8595   */\n      0x04\n        /* \"#utility.yul\":8587:8602   */\n      mstore\n        /* \"#utility.yul\":8621:8625   */\n      0x24\n        /* \"#utility.yul\":8618:8619   */\n      0x00\n        /* \"#utility.yul\":8611:8626   */\n      revert\n        /* \"#utility.yul\":8638:8829   */\n    tag_70:\n        /* \"#utility.yul\":8678:8681   */\n      0x00\n        /* \"#utility.yul\":8697:8717   */\n      tag_197\n        /* \"#utility.yul\":8715:8716   */\n      dup3\n        /* \"#utility.yul\":8697:8717   */\n      tag_71\n      jump\t// in\n    tag_197:\n        /* \"#utility.yul\":8692:8717   */\n      swap2\n      pop\n        /* \"#utility.yul\":8731:8751   */\n      tag_198\n        /* \"#utility.yul\":8749:8750   */\n      dup4\n        /* \"#utility.yul\":8731:8751   */\n      tag_71\n      jump\t// in\n    tag_198:\n        /* \"#utility.yul\":8726:8751   */\n      swap3\n      pop\n        /* \"#utility.yul\":8774:8775   */\n      dup3\n        /* \"#utility.yul\":8771:8772   */\n      dup3\n        /* \"#utility.yul\":8767:8776   */\n      add\n        /* \"#utility.yul\":8760:8776   */\n      swap1\n      pop\n        /* \"#utility.yul\":8795:8798   */\n      dup1\n        /* \"#utility.yul\":8792:8793   */\n      dup3\n        /* \"#utility.yul\":8789:8799   */\n      gt\n        /* \"#utility.yul\":8786:8822   */\n      iszero\n      tag_199\n      jumpi\n        /* \"#utility.yul\":8802:8820   */\n      tag_200\n      tag_101\n      jump\t// in\n    tag_200:\n        /* \"#utility.yul\":8786:8822   */\n    tag_199:\n        /* \"#utility.yul\":8638:8829   */\n      swap3\n      swap2\n      pop\n      pop\n      jump\t// out\n\n    auxdata: 0xa264697066735822122026128528eebf80f97a890fc444047263efa393a20c4af24e8a485e484d1f7d9e64736f6c634300081a0033\n}\n",
				"bytecode": {
					"linkReferences": {},
					"object": "608060405260015f553480156012575f80fd5b506108d9806100205f395ff3fe608060405234801561000f575f80fd5b5060043610610091575f3560e01c8063aec3d64011610064578063aec3d6401461010f578063c29855781461012d578063c5d7802e14610137578063cb9f122014610155578063febb0f7e1461017357610091565b80630c55699c1461009557806312176349146100b35780638d25de27146100d1578063a56dfe4a146100f1575b5f80fd5b61009d610191565b6040516100aa91906103aa565b60405180910390f35b6100bb610196565b6040516100c891906103aa565b60405180910390f35b6100d96101c0565b6040516100e893929190610472565b60405180910390f35b6100f9610215565b60405161010691906103aa565b60405180910390f35b61011761021b565b60405161012491906103aa565b60405180910390f35b61013561024e565b005b61013f6102a4565b60405161014c9190610500565b60405180910390f35b61015d610330565b60405161016a91906103aa565b60405180910390f35b61017b61036f565b60405161018891906103aa565b60405180910390f35b5f5481565b5f600180146101a8576101a7610520565b5b600180146101b9576101b8610520565b5b6001905090565b5f8060603392504391505f368080601f0160208091040260200160405190810160405280939291908181526020018383808284375f81840152601f19601f820116905080830192505050505050509050909192565b60015481565b5f633b9aca0080146102305761022f610520565b5b633b9aca00801461024457610243610520565b5b633b9aca00905090565b60055f8190555060026001819055506040518060400160405280600481526020017f3078414100000000000000000000000000000000000000000000000000000000815250600290816102a19190610774565b50565b600280546102b1906105a7565b80601f01602080910402602001604051908101604052809291908181526020018280546102dd906105a7565b80156103285780601f106102ff57610100808354040283529160200191610328565b820191905f5260205f20905b81548152906001019060200180831161030b57829003601f168201915b505050505081565b5f670de0b6b3a7640000801461034957610348610520565b5b670de0b6b3a7640000801461036157610360610520565b5b670de0b6b3a7640000905090565b5f80600190505f600390505f81836103879190610870565b905080935050505090565b5f819050919050565b6103a481610392565b82525050565b5f6020820190506103bd5f83018461039b565b92915050565b5f73ffffffffffffffffffffffffffffffffffffffff82169050919050565b5f6103ec826103c3565b9050919050565b6103fc816103e2565b82525050565b5f81519050919050565b5f82825260208201905092915050565b8281835e5f83830152505050565b5f601f19601f8301169050919050565b5f61044482610402565b61044e818561040c565b935061045e81856020860161041c565b6104678161042a565b840191505092915050565b5f6060820190506104855f8301866103f3565b610492602083018561039b565b81810360408301526104a4818461043a565b9050949350505050565b5f81519050919050565b5f82825260208201905092915050565b5f6104d2826104ae565b6104dc81856104b8565b93506104ec81856020860161041c565b6104f58161042a565b840191505092915050565b5f6020820190508181035f83015261051881846104c8565b905092915050565b7f4e487b71000000000000000000000000000000000000000000000000000000005f52600160045260245ffd5b7f4e487b71000000000000000000000000000000000000000000000000000000005f52604160045260245ffd5b7f4e487b71000000000000000000000000000000000000000000000000000000005f52602260045260245ffd5b5f60028204905060018216806105be57607f821691505b6020821081036105d1576105d061057a565b5b50919050565b5f819050815f5260205f209050919050565b5f6020601f8301049050919050565b5f82821b905092915050565b5f600883026106337fffffffffffffffffffffffffffffffffffffffffffffffffffffffffffffffff826105f8565b61063d86836105f8565b95508019841693508086168417925050509392505050565b5f819050919050565b5f61067861067361066e84610392565b610655565b610392565b9050919050565b5f819050919050565b6106918361065e565b6106a561069d8261067f565b848454610604565b825550505050565b5f90565b6106b96106ad565b6106c4818484610688565b505050565b5b818110156106e7576106dc5f826106b1565b6001810190506106ca565b5050565b601f82111561072c576106fd816105d7565b610706846105e9565b81016020851015610715578190505b610729610721856105e9565b8301826106c9565b50505b505050565b5f82821c905092915050565b5f61074c5f1984600802610731565b1980831691505092915050565b5f610764838361073d565b9150826002028217905092915050565b61077d826104ae565b67ffffffffffffffff8111156107965761079561054d565b5b6107a082546105a7565b6107ab8282856106eb565b5f60209050601f8311600181146107dc575f84156107ca578287015190505b6107d48582610759565b86555061083b565b601f1984166107ea866105d7565b5f5b82811015610811578489015182556001820191506020850194506020810190506107ec565b8683101561082e578489015161082a601f89168261073d565b8355505b6001600288020188555050505b505050505050565b7f4e487b71000000000000000000000000000000000000000000000000000000005f52601160045260245ffd5b5f61087a82610392565b915061088583610392565b925082820190508082111561089d5761089c610843565b5b9291505056fea264697066735822122026128528eebf80f97a890fc444047263efa393a20c4af24e8a485e484d1f7d9e64736f6c634300081a0033",
					"opcodes": "PUSH1 0x80 PUSH1 0x40 MSTORE PUSH1 0x1 PUSH0 SSTORE CALLVALUE DUP1 ISZERO PUSH1 0x12 JUMPI PUSH0 DUP1 REVERT JUMPDEST POP PUSH2 0x8D9 DUP1 PUSH2 0x20 PUSH0 CODECOPY PUSH0 RETURN INVALID PUSH1 0x80 PUSH1 0x40 MSTORE CALLVALUE DUP1 ISZERO PUSH2 0xF JUMPI PUSH0 DUP1 REVERT JUMPDEST POP PUSH1 0x4 CALLDATASIZE LT PUSH2 0x91 JUMPI PUSH0 CALLDATALOAD PUSH1 0xE0 SHR DUP1 PUSH4 0xAEC3D640 GT PUSH2 0x64 JUMPI DUP1 PUSH4 0xAEC3D640 EQ PUSH2 0x10F JUMPI DUP1 PUSH4 0xC2985578 EQ PUSH2 0x12D JUMPI DUP1 PUSH4 0xC5D7802E EQ PUSH2 0x137 JUMPI DUP1 PUSH4 0xCB9F1220 EQ PUSH2 0x155 JUMPI DUP1 PUSH4 0xFEBB0F7E EQ PUSH2 0x173 JUMPI PUSH2 0x91 JUMP JUMPDEST DUP1 PUSH4 0xC55699C EQ PUSH2 0x95 JUMPI DUP1 PUSH4 0x12176349 EQ PUSH2 0xB3 JUMPI DUP1 PUSH4 0x8D25DE27 EQ PUSH2 0xD1 JUMPI DUP1 PUSH4 0xA56DFE4A EQ PUSH2 0xF1 JUMPI JUMPDEST PUSH0 DUP1 REVERT JUMPDEST PUSH2 0x9D PUSH2 0x191 JUMP JUMPDEST PUSH1 0x40 MLOAD PUSH2 0xAA SWAP2 SWAP1 PUSH2 0x3AA JUMP JUMPDEST PUSH1 0x40 MLOAD DUP1 SWAP2 SUB SWAP1 RETURN JUMPDEST PUSH2 0xBB PUSH2 0x196 JUMP JUMPDEST PUSH1 0x40 MLOAD PUSH2 0xC8 SWAP2 SWAP1 PUSH2 0x3AA JUMP JUMPDEST PUSH1 0x40 MLOAD DUP1 SWAP2 SUB SWAP1 RETURN JUMPDEST PUSH2 0xD9 PUSH2 0x1C0 JUMP JUMPDEST PUSH1 0x40 MLOAD PUSH2 0xE8 SWAP4 SWAP3 SWAP2 SWAP1 PUSH2 0x472 JUMP JUMPDEST PUSH1 0x40 MLOAD DUP1 SWAP2 SUB SWAP1 RETURN JUMPDEST PUSH2 0xF9 PUSH2 0x215 JUMP JUMPDEST PUSH1 0x40 MLOAD PUSH2 0x106 SWAP2 SWAP1 PUSH2 0x3AA JUMP JUMPDEST PUSH1 0x40 MLOAD DUP1 SWAP2 SUB SWAP1 RETURN JUMPDEST PUSH2 0x117 PUSH2 0x21B JUMP JUMPDEST PUSH1 0x40 MLOAD PUSH2 0x124 SWAP2 SWAP1 PUSH2 0x3AA JUMP JUMPDEST PUSH1 0x40 MLOAD DUP1 SWAP2 SUB SWAP1 RETURN JUMPDEST PUSH2 0x135 PUSH2 0x24E JUMP JUMPDEST STOP JUMPDEST PUSH2 0x13F PUSH2 0x2A4 JUMP JUMPDEST PUSH1 0x40 MLOAD PUSH2 0x14C SWAP2 SWAP1 PUSH2 0x500 JUMP JUMPDEST PUSH1 0x40 MLOAD DUP1 SWAP2 SUB SWAP1 RETURN JUMPDEST PUSH2 0x15D PUSH2 0x330 JUMP JUMPDEST PUSH1 0x40 MLOAD PUSH2 0x16A SWAP2 SWAP1 PUSH2 0x3AA JUMP JUMPDEST PUSH1 0x40 MLOAD DUP1 SWAP2 SUB SWAP1 RETURN JUMPDEST PUSH2 0x17B PUSH2 0x36F JUMP JUMPDEST PUSH1 0x40 MLOAD PUSH2 0x188 SWAP2 SWAP1 PUSH2 0x3AA JUMP JUMPDEST PUSH1 0x40 MLOAD DUP1 SWAP2 SUB SWAP1 RETURN JUMPDEST PUSH0 SLOAD DUP2 JUMP JUMPDEST PUSH0 PUSH1 0x1 DUP1 EQ PUSH2 0x1A8 JUMPI PUSH2 0x1A7 PUSH2 0x520 JUMP JUMPDEST JUMPDEST PUSH1 0x1 DUP1 EQ PUSH2 0x1B9 JUMPI PUSH2 0x1B8 PUSH2 0x520 JUMP JUMPDEST JUMPDEST PUSH1 0x1 SWAP1 POP SWAP1 JUMP JUMPDEST PUSH0 DUP1 PUSH1 0x60 CALLER SWAP3 POP NUMBER SWAP2 POP PUSH0 CALLDATASIZE DUP1 DUP1 PUSH1 0x1F ADD PUSH1 0x20 DUP1 SWAP2 DIV MUL PUSH1 0x20 ADD PUSH1 0x40 MLOAD SWAP1 DUP2 ADD PUSH1 0x40 MSTORE DUP1 SWAP4 SWAP3 SWAP2 SWAP1 DUP2 DUP2 MSTORE PUSH1 0x20 ADD DUP4 DUP4 DUP1 DUP3 DUP5 CALLDATACOPY PUSH0 DUP2 DUP5 ADD MSTORE PUSH1 0x1F NOT PUSH1 0x1F DUP3 ADD AND SWAP1 POP DUP1 DUP4 ADD SWAP3 POP POP POP POP POP POP POP SWAP1 POP SWAP1 SWAP2 SWAP3 JUMP JUMPDEST PUSH1 0x1 SLOAD DUP2 JUMP JUMPDEST PUSH0 PUSH4 0x3B9ACA00 DUP1 EQ PUSH2 0x230 JUMPI PUSH2 0x22F PUSH2 0x520 JUMP JUMPDEST JUMPDEST PUSH4 0x3B9ACA00 DUP1 EQ PUSH2 0x244 JUMPI PUSH2 0x243 PUSH2 0x520 JUMP JUMPDEST JUMPDEST PUSH4 0x3B9ACA00 SWAP1 POP SWAP1 JUMP JUMPDEST PUSH1 0x5 PUSH0 DUP2 SWAP1 SSTORE POP PUSH1 0x2 PUSH1 0x1 DUP2 SWAP1 SSTORE POP PUSH1 0x40 MLOAD DUP1 PUSH1 0x40 ADD PUSH1 0x40 MSTORE DUP1 PUSH1 0x4 DUP2 MSTORE PUSH1 0x20 ADD PUSH32 0x3078414100000000000000000000000000000000000000000000000000000000 DUP2 MSTORE POP PUSH1 0x2 SWAP1 DUP2 PUSH2 0x2A1 SWAP2 SWAP1 PUSH2 0x774 JUMP JUMPDEST POP JUMP JUMPDEST PUSH1 0x2 DUP1 SLOAD PUSH2 0x2B1 SWAP1 PUSH2 0x5A7 JUMP JUMPDEST DUP1 PUSH1 0x1F ADD PUSH1 0x20 DUP1 SWAP2 DIV MUL PUSH1 0x20 ADD PUSH1 0x40 MLOAD SWAP1 DUP2 ADD PUSH1 0x40 MSTORE DUP1 SWAP3 SWAP2 SWAP1 DUP2 DUP2 MSTORE PUSH1 0x20 ADD DUP3 DUP1 SLOAD PUSH2 0x2DD SWAP1 PUSH2 0x5A7 JUMP JUMPDEST DUP1 ISZERO PUSH2 0x328 JUMPI DUP1 PUSH1 0x1F LT PUSH2 0x2FF JUMPI PUSH2 0x100 DUP1 DUP4 SLOAD DIV MUL DUP4 MSTORE SWAP2 PUSH1 0x20 ADD SWAP2 PUSH2 0x328 JUMP JUMPDEST DUP3 ADD SWAP2 SWAP1 PUSH0 MSTORE PUSH1 0x20 PUSH0 KECCAK256 SWAP1 JUMPDEST DUP2 SLOAD DUP2 MSTORE SWAP1 PUSH1 0x1 ADD SWAP1 PUSH1 0x20 ADD DUP1 DUP4 GT PUSH2 0x30B JUMPI DUP3 SWAP1 SUB PUSH1 0x1F AND DUP3 ADD SWAP2 JUMPDEST POP POP POP POP POP DUP2 JUMP JUMPDEST PUSH0 PUSH8 0xDE0B6B3A7640000 DUP1 EQ PUSH2 0x349 JUMPI PUSH2 0x348 PUSH2 0x520 JUMP JUMPDEST JUMPDEST PUSH8 0xDE0B6B3A7640000 DUP1 EQ PUSH2 0x361 JUMPI PUSH2 0x360 PUSH2 0x520 JUMP JUMPDEST JUMPDEST PUSH8 0xDE0B6B3A7640000 SWAP1 POP SWAP1 JUMP JUMPDEST PUSH0 DUP1 PUSH1 0x1 SWAP1 POP PUSH0 PUSH1 0x3 SWAP1 POP PUSH0 DUP2 DUP4 PUSH2 0x387 SWAP2 SWAP1 PUSH2 0x870 JUMP JUMPDEST SWAP1 POP DUP1 SWAP4 POP POP POP POP SWAP1 JUMP JUMPDEST PUSH0 DUP2 SWAP1 POP SWAP2 SWAP1 POP JUMP JUMPDEST PUSH2 0x3A4 DUP2 PUSH2 0x392 JUMP JUMPDEST DUP3 MSTORE POP POP JUMP JUMPDEST PUSH0 PUSH1 0x20 DUP3 ADD SWAP1 POP PUSH2 0x3BD PUSH0 DUP4 ADD DUP5 PUSH2 0x39B JUMP JUMPDEST SWAP3 SWAP2 POP POP JUMP JUMPDEST PUSH0 PUSH20 0xFFFFFFFFFFFFFFFFFFFFFFFFFFFFFFFFFFFFFFFF DUP3 AND SWAP1 POP SWAP2 SWAP1 POP JUMP JUMPDEST PUSH0 PUSH2 0x3EC DUP3 PUSH2 0x3C3 JUMP JUMPDEST SWAP1 POP SWAP2 SWAP1 POP JUMP JUMPDEST PUSH2 0x3FC DUP2 PUSH2 0x3E2 JUMP JUMPDEST DUP3 MSTORE POP POP JUMP JUMPDEST PUSH0 DUP2 MLOAD SWAP1 POP SWAP2 SWAP1 POP JUMP JUMPDEST PUSH0 DUP3 DUP3 MSTORE PUSH1 0x20 DUP3 ADD SWAP1 POP SWAP3 SWAP2 POP POP JUMP JUMPDEST DUP3 DUP2 DUP4 MCOPY PUSH0 DUP4 DUP4 ADD MSTORE POP POP POP JUMP JUMPDEST PUSH0 PUSH1 0x1F NOT PUSH1 0x1F DUP4 ADD AND SWAP1 POP SWAP2 SWAP1 POP JUMP JUMPDEST PUSH0 PUSH2 0x444 DUP3 PUSH2 0x402 JUMP JUMPDEST PUSH2 0x44E DUP2 DUP6 PUSH2 0x40C JUMP JUMPDEST SWAP4 POP PUSH2 0x45E DUP2 DUP6 PUSH1 0x20 DUP7 ADD PUSH2 0x41C JUMP JUMPDEST PUSH2 0x467 DUP2 PUSH2 0x42A JUMP JUMPDEST DUP5 ADD SWAP2 POP POP SWAP3 SWAP2 POP POP JUMP JUMPDEST PUSH0 PUSH1 0x60 DUP3 ADD SWAP1 POP PUSH2 0x485 PUSH0 DUP4 ADD DUP7 PUSH2 0x3F3 JUMP JUMPDEST PUSH2 0x492 PUSH1 0x20 DUP4 ADD DUP6 PUSH2 0x39B JUMP JUMPDEST DUP2 DUP2 SUB PUSH1 0x40 DUP4 ADD MSTORE PUSH2 0x4A4 DUP2 DUP5 PUSH2 0x43A JUMP JUMPDEST SWAP1 POP SWAP5 SWAP4 POP POP POP POP JUMP JUMPDEST PUSH0 DUP2 MLOAD SWAP1 POP SWAP2 SWAP1 POP JUMP JUMPDEST PUSH0 DUP3 DUP3 MSTORE PUSH1 0x20 DUP3 ADD SWAP1 POP SWAP3 SWAP2 POP POP JUMP JUMPDEST PUSH0 PUSH2 0x4D2 DUP3 PUSH2 0x4AE JUMP JUMPDEST PUSH2 0x4DC DUP2 DUP6 PUSH2 0x4B8 JUMP JUMPDEST SWAP4 POP PUSH2 0x4EC DUP2 DUP6 PUSH1 0x20 DUP7 ADD PUSH2 0x41C JUMP JUMPDEST PUSH2 0x4F5 DUP2 PUSH2 0x42A JUMP JUMPDEST DUP5 ADD SWAP2 POP POP SWAP3 SWAP2 POP POP JUMP JUMPDEST PUSH0 PUSH1 0x20 DUP3 ADD SWAP1 POP DUP2 DUP2 SUB PUSH0 DUP4 ADD MSTORE PUSH2 0x518 DUP2 DUP5 PUSH2 0x4C8 JUMP JUMPDEST SWAP1 POP SWAP3 SWAP2 POP POP JUMP JUMPDEST PUSH32 0x4E487B7100000000000000000000000000000000000000000000000000000000 PUSH0 MSTORE PUSH1 0x1 PUSH1 0x4 MSTORE PUSH1 0x24 PUSH0 REVERT JUMPDEST PUSH32 0x4E487B7100000000000000000000000000000000000000000000000000000000 PUSH0 MSTORE PUSH1 0x41 PUSH1 0x4 MSTORE PUSH1 0x24 PUSH0 REVERT JUMPDEST PUSH32 0x4E487B7100000000000000000000000000000000000000000000000000000000 PUSH0 MSTORE PUSH1 0x22 PUSH1 0x4 MSTORE PUSH1 0x24 PUSH0 REVERT JUMPDEST PUSH0 PUSH1 0x2 DUP3 DIV SWAP1 POP PUSH1 0x1 DUP3 AND DUP1 PUSH2 0x5BE JUMPI PUSH1 0x7F DUP3 AND SWAP2 POP JUMPDEST PUSH1 0x20 DUP3 LT DUP2 SUB PUSH2 0x5D1 JUMPI PUSH2 0x5D0 PUSH2 0x57A JUMP JUMPDEST JUMPDEST POP SWAP2 SWAP1 POP JUMP JUMPDEST PUSH0 DUP2 SWAP1 POP DUP2 PUSH0 MSTORE PUSH1 0x20 PUSH0 KECCAK256 SWAP1 POP SWAP2 SWAP1 POP JUMP JUMPDEST PUSH0 PUSH1 0x20 PUSH1 0x1F DUP4 ADD DIV SWAP1 POP SWAP2 SWAP1 POP JUMP JUMPDEST PUSH0 DUP3 DUP3 SHL SWAP1 POP SWAP3 SWAP2 POP POP JUMP JUMPDEST PUSH0 PUSH1 0x8 DUP4 MUL PUSH2 0x633 PUSH32 0xFFFFFFFFFFFFFFFFFFFFFFFFFFFFFFFFFFFFFFFFFFFFFFFFFFFFFFFFFFFFFFFF DUP3 PUSH2 0x5F8 JUMP JUMPDEST PUSH2 0x63D DUP7 DUP4 PUSH2 0x5F8 JUMP JUMPDEST SWAP6 POP DUP1 NOT DUP5 AND SWAP4 POP DUP1 DUP7 AND DUP5 OR SWAP3 POP POP POP SWAP4 SWAP3 POP POP POP JUMP JUMPDEST PUSH0 DUP2 SWAP1 POP SWAP2 SWAP1 POP JUMP JUMPDEST PUSH0 PUSH2 0x678 PUSH2 0x673 PUSH2 0x66E DUP5 PUSH2 0x392 JUMP JUMPDEST PUSH2 0x655 JUMP JUMPDEST PUSH2 0x392 JUMP JUMPDEST SWAP1 POP SWAP2 SWAP1 POP JUMP JUMPDEST PUSH0 DUP2 SWAP1 POP SWAP2 SWAP1 POP JUMP JUMPDEST PUSH2 0x691 DUP4 PUSH2 0x65E JUMP JUMPDEST PUSH2 0x6A5 PUSH2 0x69D DUP3 PUSH2 0x67F JUMP JUMPDEST DUP5 DUP5 SLOAD PUSH2 0x604 JUMP JUMPDEST DUP3 SSTORE POP POP POP POP JUMP JUMPDEST PUSH0 SWAP1 JUMP JUMPDEST PUSH2 0x6B9 PUSH2 0x6AD JUMP JUMPDEST PUSH2 0x6C4 DUP2 DUP5 DUP5 PUSH2 0x688 JUMP JUMPDEST POP POP POP JUMP JUMPDEST JUMPDEST DUP2 DUP2 LT ISZERO PUSH2 0x6E7 JUMPI PUSH2 0x6DC PUSH0 DUP3 PUSH2 0x6B1 JUMP JUMPDEST PUSH1 0x1 DUP2 ADD SWAP1 POP PUSH2 0x6CA JUMP JUMPDEST POP POP JUMP JUMPDEST PUSH1 0x1F DUP3 GT ISZERO PUSH2 0x72C JUMPI PUSH2 0x6FD DUP2 PUSH2 0x5D7 JUMP JUMPDEST PUSH2 0x706 DUP5 PUSH2 0x5E9 JUMP JUMPDEST DUP2 ADD PUSH1 0x20 DUP6 LT ISZERO PUSH2 0x715 JUMPI DUP2 SWAP1 POP JUMPDEST PUSH2 0x729 PUSH2 0x721 DUP6 PUSH2 0x5E9 JUMP JUMPDEST DUP4 ADD DUP3 PUSH2 0x6C9 JUMP JUMPDEST POP POP JUMPDEST POP POP POP JUMP JUMPDEST PUSH0 DUP3 DUP3 SHR SWAP1 POP SWAP3 SWAP2 POP POP JUMP JUMPDEST PUSH0 PUSH2 0x74C PUSH0 NOT DUP5 PUSH1 0x8 MUL PUSH2 0x731 JUMP JUMPDEST NOT DUP1 DUP4 AND SWAP2 POP POP SWAP3 SWAP2 POP POP JUMP JUMPDEST PUSH0 PUSH2 0x764 DUP4 DUP4 PUSH2 0x73D JUMP JUMPDEST SWAP2 POP DUP3 PUSH1 0x2 MUL DUP3 OR SWAP1 POP SWAP3 SWAP2 POP POP JUMP JUMPDEST PUSH2 0x77D DUP3 PUSH2 0x4AE JUMP JUMPDEST PUSH8 0xFFFFFFFFFFFFFFFF DUP2 GT ISZERO PUSH2 0x796 JUMPI PUSH2 0x795 PUSH2 0x54D JUMP JUMPDEST JUMPDEST PUSH2 0x7A0 DUP3 SLOAD PUSH2 0x5A7 JUMP JUMPDEST PUSH2 0x7AB DUP3 DUP3 DUP6 PUSH2 0x6EB JUMP JUMPDEST PUSH0 PUSH1 0x20 SWAP1 POP PUSH1 0x1F DUP4 GT PUSH1 0x1 DUP2 EQ PUSH2 0x7DC JUMPI PUSH0 DUP5 ISZERO PUSH2 0x7CA JUMPI DUP3 DUP8 ADD MLOAD SWAP1 POP JUMPDEST PUSH2 0x7D4 DUP6 DUP3 PUSH2 0x759 JUMP JUMPDEST DUP7 SSTORE POP PUSH2 0x83B JUMP JUMPDEST PUSH1 0x1F NOT DUP5 AND PUSH2 0x7EA DUP7 PUSH2 0x5D7 JUMP JUMPDEST PUSH0 JUMPDEST DUP3 DUP2 LT ISZERO PUSH2 0x811 JUMPI DUP5 DUP10 ADD MLOAD DUP3 SSTORE PUSH1 0x1 DUP3 ADD SWAP2 POP PUSH1 0x20 DUP6 ADD SWAP5 POP PUSH1 0x20 DUP2 ADD SWAP1 POP PUSH2 0x7EC JUMP JUMPDEST DUP7 DUP4 LT ISZERO PUSH2 0x82E JUMPI DUP5 DUP10 ADD MLOAD PUSH2 0x82A PUSH1 0x1F DUP10 AND DUP3 PUSH2 0x73D JUMP JUMPDEST DUP4 SSTORE POP JUMPDEST PUSH1 0x1 PUSH1 0x2 DUP9 MUL ADD DUP9 SSTORE POP POP POP JUMPDEST POP POP POP POP POP POP JUMP JUMPDEST PUSH32 0x4E487B7100000000000000000000000000000000000000000000000000000000 PUSH0 MSTORE PUSH1 0x11 PUSH1 0x4 MSTORE PUSH1 0x24 PUSH0 REVERT JUMPDEST PUSH0 PUSH2 0x87A DUP3 PUSH2 0x392 JUMP JUMPDEST SWAP2 POP PUSH2 0x885 DUP4 PUSH2 0x392 JUMP JUMPDEST SWAP3 POP DUP3 DUP3 ADD SWAP1 POP DUP1 DUP3 GT ISZERO PUSH2 0x89D JUMPI PUSH2 0x89C PUSH2 0x843 JUMP JUMPDEST JUMPDEST SWAP3 SWAP2 POP POP JUMP INVALID LOG2 PUSH5 0x6970667358 0x22 SLT KECCAK256 0x26 SLT DUP6 0x28 0xEE 0xBF DUP1 0xF9 PUSH27 0x890FC444047263EFA393A20C4AF24E8A485E484D1F7D9E64736F6C PUSH4 0x4300081A STOP CALLER "
				},
				"gasEstimates": {
					"creation": {
						"codeDepositCost": "453000",
						"executionCost": "22589",
						"totalCost": "475589"
					},
					"external": {
						"bar()": "infinite",
						"etherUnit()": "444",
						"foo()": "infinite",
						"gloabl()": "infinite",
						"gweiUnit()": "378",
						"weiUnit()": "401",
						"x()": "2425",
						"y()": "2492",
						"z()": "infinite"
					}
				},
				"methodIdentifiers": {
					"bar()": "febb0f7e",
					"etherUnit()": "cb9f1220",
					"foo()": "c2985578",
					"gloabl()": "8d25de27",
					"gweiUnit()": "aec3d640",
					"weiUnit()": "12176349",
					"x()": "0c55699c",
					"y()": "a56dfe4a",
					"z()": "c5d7802e"
				}
			},
			"storageLayout": {
				"storage": [
					{
						"astId": 55,
						"contract": "Solidity/DataStorage.sol:Variables",
						"label": "x",
						"offset": 0,
						"slot": "0",
						"type": "t_uint256"
					},
					{
						"astId": 57,
						"contract": "Solidity/DataStorage.sol:Variables",
						"label": "y",
						"offset": 0,
						"slot": "1",
						"type": "t_uint256"
					},
					{
						"astId": 59,
						"contract": "Solidity/DataStorage.sol:Variables",
						"label": "z",
						"offset": 0,
						"slot": "2",
						"type": "t_string_storage"
					}
				],
				"types": {
					"t_string_storage": {
						"encoding": "bytes",
						"label": "string",
						"numberOfBytes": "32"
					},
					"t_uint256": {
						"encoding": "inplace",
						"label": "uint256",
						"numberOfBytes": "32"
					}
				}
			},
			"userdoc": {
				"kind": "user",
				"methods": {},
				"version": 1
			}
		}
	}
}