{
	"Solidity/Constant.sol": {
		"Constant": {
			"abi": [
				{
					"inputs": [],
					"stateMutability": "nonpayable",
					"type": "constructor"
				},
				{
					"inputs": [],
					"name": "IMMUTABLE_ADDRESS",
					"outputs": [
						{
							"internalType": "address",
							"name": "",
							"type": "address"
						}
					],
					"stateMutability": "view",
					"type": "function"
				},
				{
					"inputs": [],
					"name": "IMMUTABLE_BLOCK",
					"outputs": [
						{
							"internalType": "uint256",
							"name": "",
							"type": "uint256"
						}
					],
					"stateMutability": "view",
					"type": "function"
				},
				{
					"inputs": [],
					"name": "IMMUTABLE_NUM",
					"outputs": [
						{
							"internalType": "uint256",
							"name": "",
							"type": "uint256"
						}
					],
					"stateMutability": "view",
					"type": "function"
				},
				{
					"inputs": [],
					"name": "IMMUTABLE_TEST",
					"outputs": [
						{
							"internalType": "uint256",
							"name": "",
							"type": "uint256"
						}
					],
					"stateMutability": "view",
					"type": "function"
				},
				{
					"inputs": [],
					"name": "test",
					"outputs": [
						{
							"internalType": "uint256",
							"name": "a",
							"type": "uint256"
						}
					],
					"stateMutability": "pure",
					"type": "function"
				}
			],
			"devdoc": {
				"kind": "dev",
				"methods": {},
				"version": 1
			},
			"evm": {
				"assembly": "    /* \"Solidity/Constant.sol\":60:1061  contract Constant{... */\n  mstore(0x40, 0x0100)\n    /* \"Solidity/Constant.sol\":624:634  9999999999 */\n  0x02540be3ff\n    /* \"Solidity/Constant.sol\":583:634  uint256 public immutable IMMUTABLE_NUM = 9999999999 */\n  0x80\n  swap1\n  dup2\n  mstore\n  pop\n    /* \"Solidity/Constant.sol\":689:693  this */\n  address\n    /* \"Solidity/Constant.sol\":637:694  address public immutable IMMUTABLE_ADDRESS= address(this) */\n  0xffffffffffffffffffffffffffffffffffffffff\n  and\n  0xa0\n  swap1\n  0xffffffffffffffffffffffffffffffffffffffff\n  and\n  dup2\n  mstore\n  pop\n    /* \"Solidity/Constant.sol\":738:740  10 */\n  0x0a\n    /* \"Solidity/Constant.sol\":697:740  uint256 public immutable IMMUTABLE_BLOCK=10 */\n  0xc0\n  swap1\n  dup2\n  mstore\n  pop\n    /* \"Solidity/Constant.sol\":783:784  2 */\n  0x02\n    /* \"Solidity/Constant.sol\":743:784  uint256 public immutable IMMUTABLE_TEST=2 */\n  0xe0\n  swap1\n  dup2\n  mstore\n  pop\n    /* \"Solidity/Constant.sol\":878:992  constructor(){... */\n  callvalue\n  dup1\n  iszero\n  tag_1\n  jumpi\n  0x00\n  dup1\n  revert\ntag_1:\n  pop\n    /* \"Solidity/Constant.sol\":926:930  this */\n  address\n    /* \"Solidity/Constant.sol\":898:931  IMMUTABLE_ADDRESS = address(this) */\n  0xffffffffffffffffffffffffffffffffffffffff\n  and\n  0xa0\n  dup2\n  0xffffffffffffffffffffffffffffffffffffffff\n  and\n  dup2\n  mstore\n  pop\n  pop\n    /* \"Solidity/Constant.sol\":954:958  1118 */\n  0x045e\n    /* \"Solidity/Constant.sol\":938:958  IMMUTABLE_NUM = 1118 */\n  0x80\n  dup2\n  dup2\n  mstore\n  pop\n  pop\n    /* \"Solidity/Constant.sol\":982:988  test() */\n  tag_4\n    /* \"Solidity/Constant.sol\":982:986  test */\n  shl(0x20, tag_5)\n    /* \"Solidity/Constant.sol\":982:988  test() */\n  0x20\n  shr\n  jump\t// in\ntag_4:\n    /* \"Solidity/Constant.sol\":965:988  IMMUTABLE_TEST = test() */\n  0xe0\n  dup2\n  dup2\n  mstore\n  pop\n  pop\n    /* \"Solidity/Constant.sol\":60:1061  contract Constant{... */\n  jump(tag_6)\n    /* \"Solidity/Constant.sol\":996:1058  function test() public pure returns(uint256 a){... */\ntag_5:\n    /* \"Solidity/Constant.sol\":1032:1041  uint256 a */\n  0x00\n    /* \"Solidity/Constant.sol\":1053:1054  9 */\n  0x09\n    /* \"Solidity/Constant.sol\":1049:1054  a = 9 */\n  swap1\n  pop\n    /* \"Solidity/Constant.sol\":996:1058  function test() public pure returns(uint256 a){... */\n  swap1\n  jump\t// out\n    /* \"Solidity/Constant.sol\":60:1061  contract Constant{... */\ntag_6:\n  mload(0x80)\n  mload(0xa0)\n  mload(0xc0)\n  mload(0xe0)\n  codecopy(0x00, dataOffset(sub_0), dataSize(sub_0))\n  0x00\n  assignImmutable(\"0x9560168699514dcd528543d614e81b4f36adf182dc624d2f1eb91df8addd987e\")\n  0x00\n  assignImmutable(\"0x81e080ffc23e8b8d44dd829bc823229e92b893eb1d8f624419d3f5682eb97fc3\")\n  0x00\n  assignImmutable(\"0xd4d1a59767271eefdc7830a772b9732a11d503531d972ab8c981a6b1c0e666e5\")\n  0x00\n  assignImmutable(\"0x277ab82e5a4641341820a4a2933a62c1de997e42e92548657ae21b3728d580fe\")\n  return(0x00, dataSize(sub_0))\nstop\n\nsub_0: assembly {\n        /* \"Solidity/Constant.sol\":60:1061  contract Constant{... */\n      mstore(0x40, 0x80)\n      callvalue\n      dup1\n      iszero\n      tag_1\n      jumpi\n      0x00\n      dup1\n      revert\n    tag_1:\n      pop\n      jumpi(tag_2, lt(calldatasize, 0x04))\n      shr(0xe0, calldataload(0x00))\n      dup1\n      0x1d9afdd2\n      eq\n      tag_3\n      jumpi\n      dup1\n      0x4064572e\n      eq\n      tag_4\n      jumpi\n      dup1\n      0xed7ff875\n      eq\n      tag_5\n      jumpi\n      dup1\n      0xf1513021\n      eq\n      tag_6\n      jumpi\n      dup1\n      0xf8a8fd6d\n      eq\n      tag_7\n      jumpi\n    tag_2:\n      0x00\n      dup1\n      revert\n        /* \"Solidity/Constant.sol\":697:740  uint256 public immutable IMMUTABLE_BLOCK=10 */\n    tag_3:\n      tag_8\n      tag_9\n      jump\t// in\n    tag_8:\n      mload(0x40)\n      tag_10\n      swap2\n      swap1\n      tag_11\n      jump\t// in\n    tag_10:\n      mload(0x40)\n      dup1\n      swap2\n      sub\n      swap1\n      return\n        /* \"Solidity/Constant.sol\":743:784  uint256 public immutable IMMUTABLE_TEST=2 */\n    tag_4:\n      tag_12\n      tag_13\n      jump\t// in\n    tag_12:\n      mload(0x40)\n      tag_14\n      swap2\n      swap1\n      tag_11\n      jump\t// in\n    tag_14:\n      mload(0x40)\n      dup1\n      swap2\n      sub\n      swap1\n      return\n        /* \"Solidity/Constant.sol\":583:634  uint256 public immutable IMMUTABLE_NUM = 9999999999 */\n    tag_5:\n      tag_15\n      tag_16\n      jump\t// in\n    tag_15:\n      mload(0x40)\n      tag_17\n      swap2\n      swap1\n      tag_11\n      jump\t// in\n    tag_17:\n      mload(0x40)\n      dup1\n      swap2\n      sub\n      swap1\n      return\n        /* \"Solidity/Constant.sol\":637:694  address public immutable IMMUTABLE_ADDRESS= address(this) */\n    tag_6:\n      tag_18\n      tag_19\n      jump\t// in\n    tag_18:\n      mload(0x40)\n      tag_20\n      swap2\n      swap1\n      tag_21\n      jump\t// in\n    tag_20:\n      mload(0x40)\n      dup1\n      swap2\n      sub\n      swap1\n      return\n        /* \"Solidity/Constant.sol\":996:1058  function test() public pure returns(uint256 a){... */\n    tag_7:\n      tag_22\n      tag_23\n      jump\t// in\n    tag_22:\n      mload(0x40)\n      tag_24\n      swap2\n      swap1\n      tag_11\n      jump\t// in\n    tag_24:\n      mload(0x40)\n      dup1\n      swap2\n      sub\n      swap1\n      return\n        /* \"Solidity/Constant.sol\":697:740  uint256 public immutable IMMUTABLE_BLOCK=10 */\n    tag_9:\n      immutable(\"0x81e080ffc23e8b8d44dd829bc823229e92b893eb1d8f624419d3f5682eb97fc3\")\n      dup2\n      jump\t// out\n        /* \"Solidity/Constant.sol\":743:784  uint256 public immutable IMMUTABLE_TEST=2 */\n    tag_13:\n      immutable(\"0x9560168699514dcd528543d614e81b4f36adf182dc624d2f1eb91df8addd987e\")\n      dup2\n      jump\t// out\n        /* \"Solidity/Constant.sol\":583:634  uint256 public immutable IMMUTABLE_NUM = 9999999999 */\n    tag_16:\n      immutable(\"0x277ab82e5a4641341820a4a2933a62c1de997e42e92548657ae21b3728d580fe\")\n      dup2\n      jump\t// out\n        /* \"Solidity/Constant.sol\":637:694  address public immutable IMMUTABLE_ADDRESS= address(this) */\n    tag_19:\n      immutable(\"0xd4d1a59767271eefdc7830a772b9732a11d503531d972ab8c981a6b1c0e666e5\")\n      dup2\n      jump\t// out\n        /* \"Solidity/Constant.sol\":996:1058  function test() public pure returns(uint256 a){... */\n    tag_23:\n        /* \"Solidity/Constant.sol\":1032:1041  uint256 a */\n      0x00\n        /* \"Solidity/Constant.sol\":1053:1054  9 */\n      0x09\n        /* \"Solidity/Constant.sol\":1049:1054  a = 9 */\n      swap1\n      pop\n        /* \"Solidity/Constant.sol\":996:1058  function test() public pure returns(uint256 a){... */\n      swap1\n      jump\t// out\n        /* \"#utility.yul\":7:84   */\n    tag_26:\n        /* \"#utility.yul\":44:51   */\n      0x00\n        /* \"#utility.yul\":73:78   */\n      dup2\n        /* \"#utility.yul\":62:78   */\n      swap1\n      pop\n        /* \"#utility.yul\":7:84   */\n      swap2\n      swap1\n      pop\n      jump\t// out\n        /* \"#utility.yul\":90:208   */\n    tag_27:\n        /* \"#utility.yul\":177:201   */\n      tag_34\n        /* \"#utility.yul\":195:200   */\n      dup2\n        /* \"#utility.yul\":177:201   */\n      tag_26\n      jump\t// in\n    tag_34:\n        /* \"#utility.yul\":172:175   */\n      dup3\n        /* \"#utility.yul\":165:202   */\n      mstore\n        /* \"#utility.yul\":90:208   */\n      pop\n      pop\n      jump\t// out\n        /* \"#utility.yul\":214:436   */\n    tag_11:\n        /* \"#utility.yul\":307:311   */\n      0x00\n        /* \"#utility.yul\":345:347   */\n      0x20\n        /* \"#utility.yul\":334:343   */\n      dup3\n        /* \"#utility.yul\":330:348   */\n      add\n        /* \"#utility.yul\":322:348   */\n      swap1\n      pop\n        /* \"#utility.yul\":358:429   */\n      tag_36\n        /* \"#utility.yul\":426:427   */\n      0x00\n        /* \"#utility.yul\":415:424   */\n      dup4\n        /* \"#utility.yul\":411:428   */\n      add\n        /* \"#utility.yul\":402:408   */\n      dup5\n        /* \"#utility.yul\":358:429   */\n      tag_27\n      jump\t// in\n    tag_36:\n        /* \"#utility.yul\":214:436   */\n      swap3\n      swap2\n      pop\n      pop\n      jump\t// out\n        /* \"#utility.yul\":442:568   */\n    tag_28:\n        /* \"#utility.yul\":479:486   */\n      0x00\n        /* \"#utility.yul\":519:561   */\n      0xffffffffffffffffffffffffffffffffffffffff\n        /* \"#utility.yul\":512:517   */\n      dup3\n        /* \"#utility.yul\":508:562   */\n      and\n        /* \"#utility.yul\":497:562   */\n      swap1\n      pop\n        /* \"#utility.yul\":442:568   */\n      swap2\n      swap1\n      pop\n      jump\t// out\n        /* \"#utility.yul\":574:670   */\n    tag_29:\n        /* \"#utility.yul\":611:618   */\n      0x00\n        /* \"#utility.yul\":640:664   */\n      tag_39\n        /* \"#utility.yul\":658:663   */\n      dup3\n        /* \"#utility.yul\":640:664   */\n      tag_28\n      jump\t// in\n    tag_39:\n        /* \"#utility.yul\":629:664   */\n      swap1\n      pop\n        /* \"#utility.yul\":574:670   */\n      swap2\n      swap1\n      pop\n      jump\t// out\n        /* \"#utility.yul\":676:794   */\n    tag_30:\n        /* \"#utility.yul\":763:787   */\n      tag_41\n        /* \"#utility.yul\":781:786   */\n      dup2\n        /* \"#utility.yul\":763:787   */\n      tag_29\n      jump\t// in\n    tag_41:\n        /* \"#utility.yul\":758:761   */\n      dup3\n        /* \"#utility.yul\":751:788   */\n      mstore\n        /* \"#utility.yul\":676:794   */\n      pop\n      pop\n      jump\t// out\n        /* \"#utility.yul\":800:1022   */\n    tag_21:\n        /* \"#utility.yul\":893:897   */\n      0x00\n        /* \"#utility.yul\":931:933   */\n      0x20\n        /* \"#utility.yul\":920:929   */\n      dup3\n        /* \"#utility.yul\":916:934   */\n      add\n        /* \"#utility.yul\":908:934   */\n      swap1\n      pop\n        /* \"#utility.yul\":944:1015   */\n      tag_43\n        /* \"#utility.yul\":1012:1013   */\n      0x00\n        /* \"#utility.yul\":1001:1010   */\n      dup4\n        /* \"#utility.yul\":997:1014   */\n      add\n        /* \"#utility.yul\":988:994   */\n      dup5\n        /* \"#utility.yul\":944:1015   */\n      tag_30\n      jump\t// in\n    tag_43:\n        /* \"#utility.yul\":800:1022   */\n      swap3\n      swap2\n      pop\n      pop\n      jump\t// out\n\n    auxdata: 0xa26469706673582212203b99d1d5fcd05484d84d3cc20c6cb1069c20379cd5181569cd2f18a5df87997264736f6c634300081a0033\n}\n",
				"bytecode": {
					"linkReferences": {},
					"object": "6101006040526402540be3ff6080908152503073ffffffffffffffffffffffffffffffffffffffff1660a09073ffffffffffffffffffffffffffffffffffffffff16815250600a60c090815250600260e09081525034801561005f575f80fd5b503073ffffffffffffffffffffffffffffffffffffffff1660a08173ffffffffffffffffffffffffffffffffffffffff168152505061045e608081815250506100ac6100b860201b60201c565b60e081815250506100c0565b5f6009905090565b60805160a05160c05160e0516102466100f25f395f61011501525f60f101525f61015d01525f61013901526102465ff3fe608060405234801561000f575f80fd5b5060043610610055575f3560e01c80631d9afdd2146100595780634064572e14610077578063ed7ff87514610095578063f1513021146100b3578063f8a8fd6d146100d1575b5f80fd5b6100616100ef565b60405161006e919061019f565b60405180910390f35b61007f610113565b60405161008c919061019f565b60405180910390f35b61009d610137565b6040516100aa919061019f565b60405180910390f35b6100bb61015b565b6040516100c891906101f7565b60405180910390f35b6100d961017f565b6040516100e6919061019f565b60405180910390f35b7f000000000000000000000000000000000000000000000000000000000000000081565b7f000000000000000000000000000000000000000000000000000000000000000081565b7f000000000000000000000000000000000000000000000000000000000000000081565b7f000000000000000000000000000000000000000000000000000000000000000081565b5f6009905090565b5f819050919050565b61019981610187565b82525050565b5f6020820190506101b25f830184610190565b92915050565b5f73ffffffffffffffffffffffffffffffffffffffff82169050919050565b5f6101e1826101b8565b9050919050565b6101f1816101d7565b82525050565b5f60208201905061020a5f8301846101e8565b9291505056fea26469706673582212203b99d1d5fcd05484d84d3cc20c6cb1069c20379cd5181569cd2f18a5df87997264736f6c634300081a0033",
					"opcodes": "PUSH2 0x100 PUSH1 0x40 MSTORE PUSH5 0x2540BE3FF PUSH1 0x80 SWAP1 DUP2 MSTORE POP ADDRESS PUSH20 0xFFFFFFFFFFFFFFFFFFFFFFFFFFFFFFFFFFFFFFFF AND PUSH1 0xA0 SWAP1 PUSH20 0xFFFFFFFFFFFFFFFFFFFFFFFFFFFFFFFFFFFFFFFF AND DUP2 MSTORE POP PUSH1 0xA PUSH1 0xC0 SWAP1 DUP2 MSTORE POP PUSH1 0x2 PUSH1 0xE0 SWAP1 DUP2 MSTORE POP CALLVALUE DUP1 ISZERO PUSH2 0x5F JUMPI PUSH0 DUP1 REVERT JUMPDEST POP ADDRESS PUSH20 0xFFFFFFFFFFFFFFFFFFFFFFFFFFFFFFFFFFFFFFFF AND PUSH1 0xA0 DUP2 PUSH20 0xFFFFFFFFFFFFFFFFFFFFFFFFFFFFFFFFFFFFFFFF AND DUP2 MSTORE POP POP PUSH2 0x45E PUSH1 0x80 DUP2 DUP2 MSTORE POP POP PUSH2 0xAC PUSH2 0xB8 PUSH1 0x20 SHL PUSH1 0x20 SHR JUMP JUMPDEST PUSH1 0xE0 DUP2 DUP2 MSTORE POP POP PUSH2 0xC0 JUMP JUMPDEST PUSH0 PUSH1 0x9 SWAP1 POP SWAP1 JUMP JUMPDEST PUSH1 0x80 MLOAD PUSH1 0xA0 MLOAD PUSH1 0xC0 MLOAD PUSH1 0xE0 MLOAD PUSH2 0x246 PUSH2 0xF2 PUSH0 CODECOPY PUSH0 PUSH2 0x115 ADD MSTORE PUSH0 PUSH1 0xF1 ADD MSTORE PUSH0 PUSH2 0x15D ADD MSTORE PUSH0 PUSH2 0x139 ADD MSTORE PUSH2 0x246 PUSH0 RETURN INVALID PUSH1 0x80 PUSH1 0x40 MSTORE CALLVALUE DUP1 ISZERO PUSH2 0xF JUMPI PUSH0 DUP1 REVERT JUMPDEST POP PUSH1 0x4 CALLDATASIZE LT PUSH2 0x55 JUMPI PUSH0 CALLDATALOAD PUSH1 0xE0 SHR DUP1 PUSH4 0x1D9AFDD2 EQ PUSH2 0x59 JUMPI DUP1 PUSH4 0x4064572E EQ PUSH2 0x77 JUMPI DUP1 PUSH4 0xED7FF875 EQ PUSH2 0x95 JUMPI DUP1 PUSH4 0xF1513021 EQ PUSH2 0xB3 JUMPI DUP1 PUSH4 0xF8A8FD6D EQ PUSH2 0xD1 JUMPI JUMPDEST PUSH0 DUP1 REVERT JUMPDEST PUSH2 0x61 PUSH2 0xEF JUMP JUMPDEST PUSH1 0x40 MLOAD PUSH2 0x6E SWAP2 SWAP1 PUSH2 0x19F JUMP JUMPDEST PUSH1 0x40 MLOAD DUP1 SWAP2 SUB SWAP1 RETURN JUMPDEST PUSH2 0x7F PUSH2 0x113 JUMP JUMPDEST PUSH1 0x40 MLOAD PUSH2 0x8C SWAP2 SWAP1 PUSH2 0x19F JUMP JUMPDEST PUSH1 0x40 MLOAD DUP1 SWAP2 SUB SWAP1 RETURN JUMPDEST PUSH2 0x9D PUSH2 0x137 JUMP JUMPDEST PUSH1 0x40 MLOAD PUSH2 0xAA SWAP2 SWAP1 PUSH2 0x19F JUMP JUMPDEST PUSH1 0x40 MLOAD DUP1 SWAP2 SUB SWAP1 RETURN JUMPDEST PUSH2 0xBB PUSH2 0x15B JUMP JUMPDEST PUSH1 0x40 MLOAD PUSH2 0xC8 SWAP2 SWAP1 PUSH2 0x1F7 JUMP JUMPDEST PUSH1 0x40 MLOAD DUP1 SWAP2 SUB SWAP1 RETURN JUMPDEST PUSH2 0xD9 PUSH2 0x17F JUMP JUMPDEST PUSH1 0x40 MLOAD PUSH2 0xE6 SWAP2 SWAP1 PUSH2 0x19F JUMP JUMPDEST PUSH1 0x40 MLOAD DUP1 SWAP2 SUB SWAP1 RETURN JUMPDEST PUSH32 0x0 DUP2 JUMP JUMPDEST PUSH32 0x0 DUP2 JUMP JUMPDEST PUSH32 0x0 DUP2 JUMP JUMPDEST PUSH32 0x0 DUP2 JUMP JUMPDEST PUSH0 PUSH1 0x9 SWAP1 POP SWAP1 JUMP JUMPDEST PUSH0 DUP2 SWAP1 POP SWAP2 SWAP1 POP JUMP JUMPDEST PUSH2 0x199 DUP2 PUSH2 0x187 JUMP JUMPDEST DUP3 MSTORE POP POP JUMP JUMPDEST PUSH0 PUSH1 0x20 DUP3 ADD SWAP1 POP PUSH2 0x1B2 PUSH0 DUP4 ADD DUP5 PUSH2 0x190 JUMP JUMPDEST SWAP3 SWAP2 POP POP JUMP JUMPDEST PUSH0 PUSH20 0xFFFFFFFFFFFFFFFFFFFFFFFFFFFFFFFFFFFFFFFF DUP3 AND SWAP1 POP SWAP2 SWAP1 POP JUMP JUMPDEST PUSH0 PUSH2 0x1E1 DUP3 PUSH2 0x1B8 JUMP JUMPDEST SWAP1 POP SWAP2 SWAP1 POP JUMP JUMPDEST PUSH2 0x1F1 DUP2 PUSH2 0x1D7 JUMP JUMPDEST DUP3 MSTORE POP POP JUMP JUMPDEST PUSH0 PUSH1 0x20 DUP3 ADD SWAP1 POP PUSH2 0x20A PUSH0 DUP4 ADD DUP5 PUSH2 0x1E8 JUMP JUMPDEST SWAP3 SWAP2 POP POP JUMP INVALID LOG2 PUSH5 0x6970667358 0x22 SLT KECCAK256 EXTCODESIZE SWAP10 0xD1 0xD5 0xFC 0xD0 SLOAD DUP5 0xD8 0x4D EXTCODECOPY 0xC2 0xC PUSH13 0xB1069C20379CD5181569CD2F18 0xA5 0xDF DUP8 SWAP10 PUSH19 0x64736F6C634300081A00330000000000000000 "
				},
				"gasEstimates": {
					"creation": {
						"codeDepositCost": "116400",
						"executionCost": "infinite",
						"totalCost": "infinite"
					},
					"external": {
						"IMMUTABLE_ADDRESS()": "infinite",
						"IMMUTABLE_BLOCK()": "infinite",
						"IMMUTABLE_NUM()": "infinite",
						"IMMUTABLE_TEST()": "infinite",
						"test()": "398"
					}
				},
				"methodIdentifiers": {
					"IMMUTABLE_ADDRESS()": "f1513021",
					"IMMUTABLE_BLOCK()": "1d9afdd2",
					"IMMUTABLE_NUM()": "ed7ff875",
					"IMMUTABLE_TEST()": "4064572e",
					"test()": "f8a8fd6d"
				}
			},
			"storageLayout": {
				"storage": [],
				"types": null
			},
			"userdoc": {
				"kind": "user",
				"methods": {},
				"version": 1
			}
		}
	}
}