{
	"Solidity/Return.sol": {
		"Return": {
			"abi": [
				{
					"inputs": [],
					"name": "_number2",
					"outputs": [
						{
							"internalType": "uint256",
							"name": "",
							"type": "uint256"
						}
					],
					"stateMutability": "view",
					"type": "function"
				},
				{
					"inputs": [],
					"name": "readReturn",
					"outputs": [
						{
							"internalType": "bool",
							"name": "a",
							"type": "bool"
						}
					],
					"stateMutability": "pure",
					"type": "function"
				},
				{
					"inputs": [],
					"name": "returnMultiple",
					"outputs": [
						{
							"internalType": "uint256",
							"name": "",
							"type": "uint256"
						},
						{
							"internalType": "bool",
							"name": "",
							"type": "bool"
						},
						{
							"internalType": "uint256[3]",
							"name": "aa",
							"type": "uint256[3]"
						}
					],
					"stateMutability": "pure",
					"type": "function"
				},
				{
					"inputs": [],
					"name": "returnNamed",
					"outputs": [
						{
							"internalType": "uint256",
							"name": "_number",
							"type": "uint256"
						},
						{
							"internalType": "bool",
							"name": "_bool",
							"type": "bool"
						},
						{
							"internalType": "uint8[3]",
							"name": "_array",
							"type": "uint8[3]"
						}
					],
					"stateMutability": "pure",
					"type": "function"
				}
			],
			"devdoc": {
				"kind": "dev",
				"methods": {},
				"version": 1
			},
			"evm": {
				"assembly": "    /* \"Solidity/Return.sol\":57:1598  contract Return {... */\n  mstore(0x40, 0x80)\n    /* \"Solidity/Return.sol\":108:109  5 */\n  0x05\n    /* \"Solidity/Return.sol\":82:109  uint256 public _number2 = 5 */\n  0x00\n  sstore\n    /* \"Solidity/Return.sol\":57:1598  contract Return {... */\n  callvalue\n  dup1\n  iszero\n  tag_1\n  jumpi\n  0x00\n  dup1\n  revert\ntag_1:\n  pop\n  dataSize(sub_0)\n  dup1\n  dataOffset(sub_0)\n  0x00\n  codecopy\n  0x00\n  return\nstop\n\nsub_0: assembly {\n        /* \"Solidity/Return.sol\":57:1598  contract Return {... */\n      mstore(0x40, 0x80)\n      callvalue\n      dup1\n      iszero\n      tag_1\n      jumpi\n      0x00\n      dup1\n      revert\n    tag_1:\n      pop\n      jumpi(tag_2, lt(calldatasize, 0x04))\n      shr(0xe0, calldataload(0x00))\n      dup1\n      0x3dece511\n      eq\n      tag_3\n      jumpi\n      dup1\n      0x6b1d2c4e\n      eq\n      tag_4\n      jumpi\n      dup1\n      0x6f590330\n      eq\n      tag_5\n      jumpi\n      dup1\n      0xe61e4008\n      eq\n      tag_6\n      jumpi\n    tag_2:\n      0x00\n      dup1\n      revert\n        /* \"Solidity/Return.sol\":542:801  function returnNamed()... */\n    tag_3:\n      tag_7\n      tag_8\n      jump\t// in\n    tag_7:\n      mload(0x40)\n      tag_9\n      swap4\n      swap3\n      swap2\n      swap1\n      tag_10\n      jump\t// in\n    tag_9:\n      mload(0x40)\n      dup1\n      swap2\n      sub\n      swap1\n      return\n        /* \"Solidity/Return.sol\":82:109  uint256 public _number2 = 5 */\n    tag_4:\n      tag_11\n      tag_12\n      jump\t// in\n    tag_11:\n      mload(0x40)\n      tag_13\n      swap2\n      swap1\n      tag_14\n      jump\t// in\n    tag_13:\n      mload(0x40)\n      dup1\n      swap2\n      sub\n      swap1\n      return\n        /* \"Solidity/Return.sol\":1032:1587  function readReturn() public pure returns(bool a){... */\n    tag_5:\n      tag_15\n      tag_16\n      jump\t// in\n    tag_15:\n      mload(0x40)\n      tag_17\n      swap2\n      swap1\n      tag_18\n      jump\t// in\n    tag_17:\n      mload(0x40)\n      dup1\n      swap2\n      sub\n      swap1\n      return\n        /* \"Solidity/Return.sol\":142:353  function returnMultiple()... */\n    tag_6:\n      tag_19\n      tag_20\n      jump\t// in\n    tag_19:\n      mload(0x40)\n      tag_21\n      swap4\n      swap3\n      swap2\n      swap1\n      tag_22\n      jump\t// in\n    tag_21:\n      mload(0x40)\n      dup1\n      swap2\n      sub\n      swap1\n      return\n        /* \"Solidity/Return.sol\":542:801  function returnNamed()... */\n    tag_8:\n        /* \"Solidity/Return.sol\":623:638  uint256 _number */\n      0x00\n        /* \"Solidity/Return.sol\":652:662  bool _bool */\n      dup1\n        /* \"Solidity/Return.sol\":676:698  uint8[3] memory _array */\n      tag_23\n      tag_24\n      jump\t// in\n    tag_23:\n        /* \"Solidity/Return.sol\":743:744  1 */\n      0x01\n        /* \"Solidity/Return.sol\":733:740  _number */\n      dup4\n        /* \"Solidity/Return.sol\":733:744  _number + 1 */\n      tag_26\n      swap2\n      swap1\n      tag_27\n      jump\t// in\n    tag_26:\n        /* \"Solidity/Return.sol\":723:744  _number = _number + 1 */\n      swap3\n      pop\n        /* \"Solidity/Return.sol\":762:766  true */\n      0x01\n        /* \"Solidity/Return.sol\":754:766  _bool = true */\n      swap2\n      pop\n        /* \"Solidity/Return.sol\":776:794  _array = [3, 2, 1] */\n      mload(0x40)\n      dup1\n      0x60\n      add\n      0x40\n      mstore\n      dup1\n        /* \"Solidity/Return.sol\":786:787  3 */\n      0x03\n        /* \"Solidity/Return.sol\":776:794  _array = [3, 2, 1] */\n      0xff\n      and\n      dup2\n      mstore\n      0x20\n      add\n        /* \"Solidity/Return.sol\":789:790  2 */\n      0x02\n        /* \"Solidity/Return.sol\":776:794  _array = [3, 2, 1] */\n      0xff\n      and\n      dup2\n      mstore\n      0x20\n      add\n        /* \"Solidity/Return.sol\":792:793  1 */\n      0x01\n        /* \"Solidity/Return.sol\":776:794  _array = [3, 2, 1] */\n      0xff\n      and\n      dup2\n      mstore\n      pop\n      swap1\n      pop\n        /* \"Solidity/Return.sol\":542:801  function returnNamed()... */\n      swap1\n      swap2\n      swap3\n      jump\t// out\n        /* \"Solidity/Return.sol\":82:109  uint256 public _number2 = 5 */\n    tag_12:\n      sload(0x00)\n      dup2\n      jump\t// out\n        /* \"Solidity/Return.sol\":1032:1587  function readReturn() public pure returns(bool a){... */\n    tag_16:\n        /* \"Solidity/Return.sol\":1074:1080  bool a */\n      0x00\n        /* \"Solidity/Return.sol\":1567:1580  returnNamed() */\n      tag_29\n        /* \"Solidity/Return.sol\":1567:1578  returnNamed */\n      tag_8\n        /* \"Solidity/Return.sol\":1567:1580  returnNamed() */\n      jump\t// in\n    tag_29:\n        /* \"Solidity/Return.sol\":1557:1580  (, a, ) = returnNamed() */\n      swap1\n      swap2\n      pop\n      pop\n      dup1\n      swap2\n      pop\n      pop\n        /* \"Solidity/Return.sol\":1032:1587  function readReturn() public pure returns(bool a){... */\n      swap1\n      jump\t// out\n        /* \"Solidity/Return.sol\":142:353  function returnMultiple()... */\n    tag_20:\n        /* \"Solidity/Return.sol\":226:233  uint256 */\n      0x00\n        /* \"Solidity/Return.sol\":247:251  bool */\n      dup1\n        /* \"Solidity/Return.sol\":265:285  uint256[3] memory aa */\n      tag_30\n      tag_31\n      jump\t// in\n    tag_30:\n        /* \"Solidity/Return.sol\":318:319  1 */\n      0x01\n        /* \"Solidity/Return.sol\":321:325  true */\n      dup1\n        /* \"Solidity/Return.sol\":310:346  return (1, true, [uint256(1), 2, 3]) */\n      mload(0x40)\n      dup1\n      0x60\n      add\n      0x40\n      mstore\n      dup1\n        /* \"Solidity/Return.sol\":336:337  1 */\n      0x01\n        /* \"Solidity/Return.sol\":310:346  return (1, true, [uint256(1), 2, 3]) */\n      dup2\n      mstore\n      0x20\n      add\n        /* \"Solidity/Return.sol\":340:341  2 */\n      0x02\n        /* \"Solidity/Return.sol\":310:346  return (1, true, [uint256(1), 2, 3]) */\n      dup2\n      mstore\n      0x20\n      add\n        /* \"Solidity/Return.sol\":343:344  3 */\n      0x03\n        /* \"Solidity/Return.sol\":310:346  return (1, true, [uint256(1), 2, 3]) */\n      dup2\n      mstore\n      pop\n      swap3\n      pop\n      swap3\n      pop\n      swap3\n      pop\n        /* \"Solidity/Return.sol\":142:353  function returnMultiple()... */\n      swap1\n      swap2\n      swap3\n      jump\t// out\n    tag_24:\n      mload(0x40)\n      dup1\n      0x60\n      add\n      0x40\n      mstore\n      dup1\n      0x03\n      swap1\n      0x20\n      dup3\n      mul\n      dup1\n      calldatasize\n      dup4\n      calldatacopy\n      dup1\n      dup3\n      add\n      swap2\n      pop\n      pop\n      swap1\n      pop\n      pop\n      swap1\n      jump\t// out\n    tag_31:\n      mload(0x40)\n      dup1\n      0x60\n      add\n      0x40\n      mstore\n      dup1\n      0x03\n      swap1\n      0x20\n      dup3\n      mul\n      dup1\n      calldatasize\n      dup4\n      calldatacopy\n      dup1\n      dup3\n      add\n      swap2\n      pop\n      pop\n      swap1\n      pop\n      pop\n      swap1\n      jump\t// out\n        /* \"#utility.yul\":7:84   */\n    tag_33:\n        /* \"#utility.yul\":44:51   */\n      0x00\n        /* \"#utility.yul\":73:78   */\n      dup2\n        /* \"#utility.yul\":62:78   */\n      swap1\n      pop\n        /* \"#utility.yul\":7:84   */\n      swap2\n      swap1\n      pop\n      jump\t// out\n        /* \"#utility.yul\":90:208   */\n    tag_34:\n        /* \"#utility.yul\":177:201   */\n      tag_56\n        /* \"#utility.yul\":195:200   */\n      dup2\n        /* \"#utility.yul\":177:201   */\n      tag_33\n      jump\t// in\n    tag_56:\n        /* \"#utility.yul\":172:175   */\n      dup3\n        /* \"#utility.yul\":165:202   */\n      mstore\n        /* \"#utility.yul\":90:208   */\n      pop\n      pop\n      jump\t// out\n        /* \"#utility.yul\":214:304   */\n    tag_35:\n        /* \"#utility.yul\":248:255   */\n      0x00\n        /* \"#utility.yul\":291:296   */\n      dup2\n        /* \"#utility.yul\":284:297   */\n      iszero\n        /* \"#utility.yul\":277:298   */\n      iszero\n        /* \"#utility.yul\":266:298   */\n      swap1\n      pop\n        /* \"#utility.yul\":214:304   */\n      swap2\n      swap1\n      pop\n      jump\t// out\n        /* \"#utility.yul\":310:419   */\n    tag_36:\n        /* \"#utility.yul\":391:412   */\n      tag_59\n        /* \"#utility.yul\":406:411   */\n      dup2\n        /* \"#utility.yul\":391:412   */\n      tag_35\n      jump\t// in\n    tag_59:\n        /* \"#utility.yul\":386:389   */\n      dup3\n        /* \"#utility.yul\":379:413   */\n      mstore\n        /* \"#utility.yul\":310:419   */\n      pop\n      pop\n      jump\t// out\n        /* \"#utility.yul\":425:527   */\n    tag_37:\n        /* \"#utility.yul\":488:494   */\n      0x00\n        /* \"#utility.yul\":516:520   */\n      0x03\n        /* \"#utility.yul\":506:520   */\n      swap1\n      pop\n        /* \"#utility.yul\":425:527   */\n      swap2\n      swap1\n      pop\n      jump\t// out\n        /* \"#utility.yul\":533:674   */\n    tag_38:\n        /* \"#utility.yul\":628:639   */\n      0x00\n        /* \"#utility.yul\":665:668   */\n      dup2\n        /* \"#utility.yul\":650:668   */\n      swap1\n      pop\n        /* \"#utility.yul\":533:674   */\n      swap3\n      swap2\n      pop\n      pop\n      jump\t// out\n        /* \"#utility.yul\":680:776   */\n    tag_39:\n        /* \"#utility.yul\":743:747   */\n      0x00\n        /* \"#utility.yul\":766:769   */\n      dup2\n        /* \"#utility.yul\":758:769   */\n      swap1\n      pop\n        /* \"#utility.yul\":680:776   */\n      swap2\n      swap1\n      pop\n      jump\t// out\n        /* \"#utility.yul\":782:868   */\n    tag_40:\n        /* \"#utility.yul\":817:824   */\n      0x00\n        /* \"#utility.yul\":857:861   */\n      0xff\n        /* \"#utility.yul\":850:855   */\n      dup3\n        /* \"#utility.yul\":846:862   */\n      and\n        /* \"#utility.yul\":835:862   */\n      swap1\n      pop\n        /* \"#utility.yul\":782:868   */\n      swap2\n      swap1\n      pop\n      jump\t// out\n        /* \"#utility.yul\":874:976   */\n    tag_41:\n        /* \"#utility.yul\":947:969   */\n      tag_65\n        /* \"#utility.yul\":963:968   */\n      dup2\n        /* \"#utility.yul\":947:969   */\n      tag_40\n      jump\t// in\n    tag_65:\n        /* \"#utility.yul\":942:945   */\n      dup3\n        /* \"#utility.yul\":935:970   */\n      mstore\n        /* \"#utility.yul\":874:976   */\n      pop\n      pop\n      jump\t// out\n        /* \"#utility.yul\":982:1153   */\n    tag_42:\n        /* \"#utility.yul\":1047:1057   */\n      0x00\n        /* \"#utility.yul\":1068:1110   */\n      tag_67\n        /* \"#utility.yul\":1106:1109   */\n      dup4\n        /* \"#utility.yul\":1098:1104   */\n      dup4\n        /* \"#utility.yul\":1068:1110   */\n      tag_41\n      jump\t// in\n    tag_67:\n        /* \"#utility.yul\":1142:1146   */\n      0x20\n        /* \"#utility.yul\":1137:1140   */\n      dup4\n        /* \"#utility.yul\":1133:1147   */\n      add\n        /* \"#utility.yul\":1119:1147   */\n      swap1\n      pop\n        /* \"#utility.yul\":982:1153   */\n      swap3\n      swap2\n      pop\n      pop\n      jump\t// out\n        /* \"#utility.yul\":1159:1268   */\n    tag_43:\n        /* \"#utility.yul\":1225:1229   */\n      0x00\n        /* \"#utility.yul\":1257:1261   */\n      0x20\n        /* \"#utility.yul\":1252:1255   */\n      dup3\n        /* \"#utility.yul\":1248:1262   */\n      add\n        /* \"#utility.yul\":1240:1262   */\n      swap1\n      pop\n        /* \"#utility.yul\":1159:1268   */\n      swap2\n      swap1\n      pop\n      jump\t// out\n        /* \"#utility.yul\":1302:1980   */\n    tag_44:\n        /* \"#utility.yul\":1434:1484   */\n      tag_70\n        /* \"#utility.yul\":1478:1483   */\n      dup2\n        /* \"#utility.yul\":1434:1484   */\n      tag_37\n      jump\t// in\n    tag_70:\n        /* \"#utility.yul\":1500:1582   */\n      tag_71\n        /* \"#utility.yul\":1575:1581   */\n      dup2\n        /* \"#utility.yul\":1570:1573   */\n      dup5\n        /* \"#utility.yul\":1500:1582   */\n      tag_38\n      jump\t// in\n    tag_71:\n        /* \"#utility.yul\":1493:1582   */\n      swap3\n      pop\n        /* \"#utility.yul\":1606:1658   */\n      tag_72\n        /* \"#utility.yul\":1652:1657   */\n      dup3\n        /* \"#utility.yul\":1606:1658   */\n      tag_39\n      jump\t// in\n    tag_72:\n        /* \"#utility.yul\":1681:1688   */\n      dup1\n        /* \"#utility.yul\":1712:1713   */\n      0x00\n        /* \"#utility.yul\":1697:1973   */\n    tag_73:\n        /* \"#utility.yul\":1722:1728   */\n      dup4\n        /* \"#utility.yul\":1719:1720   */\n      dup2\n        /* \"#utility.yul\":1716:1729   */\n      lt\n        /* \"#utility.yul\":1697:1973   */\n      iszero\n      tag_75\n      jumpi\n        /* \"#utility.yul\":1798:1804   */\n      dup2\n        /* \"#utility.yul\":1792:1805   */\n      mload\n        /* \"#utility.yul\":1825:1884   */\n      tag_76\n        /* \"#utility.yul\":1880:1883   */\n      dup8\n        /* \"#utility.yul\":1865:1878   */\n      dup3\n        /* \"#utility.yul\":1825:1884   */\n      tag_42\n      jump\t// in\n    tag_76:\n        /* \"#utility.yul\":1818:1884   */\n      swap7\n      pop\n        /* \"#utility.yul\":1907:1963   */\n      tag_77\n        /* \"#utility.yul\":1956:1962   */\n      dup4\n        /* \"#utility.yul\":1907:1963   */\n      tag_43\n      jump\t// in\n    tag_77:\n        /* \"#utility.yul\":1897:1963   */\n      swap3\n      pop\n        /* \"#utility.yul\":1757:1973   */\n      pop\n        /* \"#utility.yul\":1744:1745   */\n      0x01\n        /* \"#utility.yul\":1741:1742   */\n      dup2\n        /* \"#utility.yul\":1737:1746   */\n      add\n        /* \"#utility.yul\":1732:1746   */\n      swap1\n      pop\n        /* \"#utility.yul\":1697:1973   */\n      jump(tag_73)\n    tag_75:\n        /* \"#utility.yul\":1701:1715   */\n      pop\n        /* \"#utility.yul\":1410:1980   */\n      pop\n      pop\n      pop\n        /* \"#utility.yul\":1302:1980   */\n      pop\n      pop\n      jump\t// out\n        /* \"#utility.yul\":1986:2501   */\n    tag_10:\n        /* \"#utility.yul\":2171:2175   */\n      0x00\n        /* \"#utility.yul\":2209:2212   */\n      0xa0\n        /* \"#utility.yul\":2198:2207   */\n      dup3\n        /* \"#utility.yul\":2194:2213   */\n      add\n        /* \"#utility.yul\":2186:2213   */\n      swap1\n      pop\n        /* \"#utility.yul\":2223:2294   */\n      tag_79\n        /* \"#utility.yul\":2291:2292   */\n      0x00\n        /* \"#utility.yul\":2280:2289   */\n      dup4\n        /* \"#utility.yul\":2276:2293   */\n      add\n        /* \"#utility.yul\":2267:2273   */\n      dup7\n        /* \"#utility.yul\":2223:2294   */\n      tag_34\n      jump\t// in\n    tag_79:\n        /* \"#utility.yul\":2304:2370   */\n      tag_80\n        /* \"#utility.yul\":2366:2368   */\n      0x20\n        /* \"#utility.yul\":2355:2364   */\n      dup4\n        /* \"#utility.yul\":2351:2369   */\n      add\n        /* \"#utility.yul\":2342:2348   */\n      dup6\n        /* \"#utility.yul\":2304:2370   */\n      tag_36\n      jump\t// in\n    tag_80:\n        /* \"#utility.yul\":2380:2494   */\n      tag_81\n        /* \"#utility.yul\":2490:2492   */\n      0x40\n        /* \"#utility.yul\":2479:2488   */\n      dup4\n        /* \"#utility.yul\":2475:2493   */\n      add\n        /* \"#utility.yul\":2466:2472   */\n      dup5\n        /* \"#utility.yul\":2380:2494   */\n      tag_44\n      jump\t// in\n    tag_81:\n        /* \"#utility.yul\":1986:2501   */\n      swap5\n      swap4\n      pop\n      pop\n      pop\n      pop\n      jump\t// out\n        /* \"#utility.yul\":2507:2729   */\n    tag_14:\n        /* \"#utility.yul\":2600:2604   */\n      0x00\n        /* \"#utility.yul\":2638:2640   */\n      0x20\n        /* \"#utility.yul\":2627:2636   */\n      dup3\n        /* \"#utility.yul\":2623:2641   */\n      add\n        /* \"#utility.yul\":2615:2641   */\n      swap1\n      pop\n        /* \"#utility.yul\":2651:2722   */\n      tag_83\n        /* \"#utility.yul\":2719:2720   */\n      0x00\n        /* \"#utility.yul\":2708:2717   */\n      dup4\n        /* \"#utility.yul\":2704:2721   */\n      add\n        /* \"#utility.yul\":2695:2701   */\n      dup5\n        /* \"#utility.yul\":2651:2722   */\n      tag_34\n      jump\t// in\n    tag_83:\n        /* \"#utility.yul\":2507:2729   */\n      swap3\n      swap2\n      pop\n      pop\n      jump\t// out\n        /* \"#utility.yul\":2735:2945   */\n    tag_18:\n        /* \"#utility.yul\":2822:2826   */\n      0x00\n        /* \"#utility.yul\":2860:2862   */\n      0x20\n        /* \"#utility.yul\":2849:2858   */\n      dup3\n        /* \"#utility.yul\":2845:2863   */\n      add\n        /* \"#utility.yul\":2837:2863   */\n      swap1\n      pop\n        /* \"#utility.yul\":2873:2938   */\n      tag_85\n        /* \"#utility.yul\":2935:2936   */\n      0x00\n        /* \"#utility.yul\":2924:2933   */\n      dup4\n        /* \"#utility.yul\":2920:2937   */\n      add\n        /* \"#utility.yul\":2911:2917   */\n      dup5\n        /* \"#utility.yul\":2873:2938   */\n      tag_36\n      jump\t// in\n    tag_85:\n        /* \"#utility.yul\":2735:2945   */\n      swap3\n      swap2\n      pop\n      pop\n      jump\t// out\n        /* \"#utility.yul\":2951:3055   */\n    tag_45:\n        /* \"#utility.yul\":3016:3022   */\n      0x00\n        /* \"#utility.yul\":3044:3048   */\n      0x03\n        /* \"#utility.yul\":3034:3048   */\n      swap1\n      pop\n        /* \"#utility.yul\":2951:3055   */\n      swap2\n      swap1\n      pop\n      jump\t// out\n        /* \"#utility.yul\":3061:3204   */\n    tag_46:\n        /* \"#utility.yul\":3158:3169   */\n      0x00\n        /* \"#utility.yul\":3195:3198   */\n      dup2\n        /* \"#utility.yul\":3180:3198   */\n      swap1\n      pop\n        /* \"#utility.yul\":3061:3204   */\n      swap3\n      swap2\n      pop\n      pop\n      jump\t// out\n        /* \"#utility.yul\":3210:3308   */\n    tag_47:\n        /* \"#utility.yul\":3275:3279   */\n      0x00\n        /* \"#utility.yul\":3298:3301   */\n      dup2\n        /* \"#utility.yul\":3290:3301   */\n      swap1\n      pop\n        /* \"#utility.yul\":3210:3308   */\n      swap2\n      swap1\n      pop\n      jump\t// out\n        /* \"#utility.yul\":3314:3422   */\n    tag_48:\n        /* \"#utility.yul\":3391:3415   */\n      tag_90\n        /* \"#utility.yul\":3409:3414   */\n      dup2\n        /* \"#utility.yul\":3391:3415   */\n      tag_33\n      jump\t// in\n    tag_90:\n        /* \"#utility.yul\":3386:3389   */\n      dup3\n        /* \"#utility.yul\":3379:3416   */\n      mstore\n        /* \"#utility.yul\":3314:3422   */\n      pop\n      pop\n      jump\t// out\n        /* \"#utility.yul\":3428:3607   */\n    tag_49:\n        /* \"#utility.yul\":3497:3507   */\n      0x00\n        /* \"#utility.yul\":3518:3564   */\n      tag_92\n        /* \"#utility.yul\":3560:3563   */\n      dup4\n        /* \"#utility.yul\":3552:3558   */\n      dup4\n        /* \"#utility.yul\":3518:3564   */\n      tag_48\n      jump\t// in\n    tag_92:\n        /* \"#utility.yul\":3596:3600   */\n      0x20\n        /* \"#utility.yul\":3591:3594   */\n      dup4\n        /* \"#utility.yul\":3587:3601   */\n      add\n        /* \"#utility.yul\":3573:3601   */\n      swap1\n      pop\n        /* \"#utility.yul\":3428:3607   */\n      swap3\n      swap2\n      pop\n      pop\n      jump\t// out\n        /* \"#utility.yul\":3613:3724   */\n    tag_50:\n        /* \"#utility.yul\":3681:3685   */\n      0x00\n        /* \"#utility.yul\":3713:3717   */\n      0x20\n        /* \"#utility.yul\":3708:3711   */\n      dup3\n        /* \"#utility.yul\":3704:3718   */\n      add\n        /* \"#utility.yul\":3696:3718   */\n      swap1\n      pop\n        /* \"#utility.yul\":3613:3724   */\n      swap2\n      swap1\n      pop\n      jump\t// out\n        /* \"#utility.yul\":3762:4456   */\n    tag_51:\n        /* \"#utility.yul\":3898:3950   */\n      tag_95\n        /* \"#utility.yul\":3944:3949   */\n      dup2\n        /* \"#utility.yul\":3898:3950   */\n      tag_45\n      jump\t// in\n    tag_95:\n        /* \"#utility.yul\":3966:4050   */\n      tag_96\n        /* \"#utility.yul\":4043:4049   */\n      dup2\n        /* \"#utility.yul\":4038:4041   */\n      dup5\n        /* \"#utility.yul\":3966:4050   */\n      tag_46\n      jump\t// in\n    tag_96:\n        /* \"#utility.yul\":3959:4050   */\n      swap3\n      pop\n        /* \"#utility.yul\":4074:4128   */\n      tag_97\n        /* \"#utility.yul\":4122:4127   */\n      dup3\n        /* \"#utility.yul\":4074:4128   */\n      tag_47\n      jump\t// in\n    tag_97:\n        /* \"#utility.yul\":4151:4158   */\n      dup1\n        /* \"#utility.yul\":4182:4183   */\n      0x00\n        /* \"#utility.yul\":4167:4449   */\n    tag_98:\n        /* \"#utility.yul\":4192:4198   */\n      dup4\n        /* \"#utility.yul\":4189:4190   */\n      dup2\n        /* \"#utility.yul\":4186:4199   */\n      lt\n        /* \"#utility.yul\":4167:4449   */\n      iszero\n      tag_100\n      jumpi\n        /* \"#utility.yul\":4268:4274   */\n      dup2\n        /* \"#utility.yul\":4262:4275   */\n      mload\n        /* \"#utility.yul\":4295:4358   */\n      tag_101\n        /* \"#utility.yul\":4354:4357   */\n      dup8\n        /* \"#utility.yul\":4339:4352   */\n      dup3\n        /* \"#utility.yul\":4295:4358   */\n      tag_49\n      jump\t// in\n    tag_101:\n        /* \"#utility.yul\":4288:4358   */\n      swap7\n      pop\n        /* \"#utility.yul\":4381:4439   */\n      tag_102\n        /* \"#utility.yul\":4432:4438   */\n      dup4\n        /* \"#utility.yul\":4381:4439   */\n      tag_50\n      jump\t// in\n    tag_102:\n        /* \"#utility.yul\":4371:4439   */\n      swap3\n      pop\n        /* \"#utility.yul\":4227:4449   */\n      pop\n        /* \"#utility.yul\":4214:4215   */\n      0x01\n        /* \"#utility.yul\":4211:4212   */\n      dup2\n        /* \"#utility.yul\":4207:4216   */\n      add\n        /* \"#utility.yul\":4202:4216   */\n      swap1\n      pop\n        /* \"#utility.yul\":4167:4449   */\n      jump(tag_98)\n    tag_100:\n        /* \"#utility.yul\":4171:4185   */\n      pop\n        /* \"#utility.yul\":3874:4456   */\n      pop\n      pop\n      pop\n        /* \"#utility.yul\":3762:4456   */\n      pop\n      pop\n      jump\t// out\n        /* \"#utility.yul\":4462:4985   */\n    tag_22:\n        /* \"#utility.yul\":4651:4655   */\n      0x00\n        /* \"#utility.yul\":4689:4692   */\n      0xa0\n        /* \"#utility.yul\":4678:4687   */\n      dup3\n        /* \"#utility.yul\":4674:4693   */\n      add\n        /* \"#utility.yul\":4666:4693   */\n      swap1\n      pop\n        /* \"#utility.yul\":4703:4774   */\n      tag_104\n        /* \"#utility.yul\":4771:4772   */\n      0x00\n        /* \"#utility.yul\":4760:4769   */\n      dup4\n        /* \"#utility.yul\":4756:4773   */\n      add\n        /* \"#utility.yul\":4747:4753   */\n      dup7\n        /* \"#utility.yul\":4703:4774   */\n      tag_34\n      jump\t// in\n    tag_104:\n        /* \"#utility.yul\":4784:4850   */\n      tag_105\n        /* \"#utility.yul\":4846:4848   */\n      0x20\n        /* \"#utility.yul\":4835:4844   */\n      dup4\n        /* \"#utility.yul\":4831:4849   */\n      add\n        /* \"#utility.yul\":4822:4828   */\n      dup6\n        /* \"#utility.yul\":4784:4850   */\n      tag_36\n      jump\t// in\n    tag_105:\n        /* \"#utility.yul\":4860:4978   */\n      tag_106\n        /* \"#utility.yul\":4974:4976   */\n      0x40\n        /* \"#utility.yul\":4963:4972   */\n      dup4\n        /* \"#utility.yul\":4959:4977   */\n      add\n        /* \"#utility.yul\":4950:4956   */\n      dup5\n        /* \"#utility.yul\":4860:4978   */\n      tag_51\n      jump\t// in\n    tag_106:\n        /* \"#utility.yul\":4462:4985   */\n      swap5\n      swap4\n      pop\n      pop\n      pop\n      pop\n      jump\t// out\n        /* \"#utility.yul\":4991:5171   */\n    tag_52:\n        /* \"#utility.yul\":5039:5116   */\n      0x4e487b7100000000000000000000000000000000000000000000000000000000\n        /* \"#utility.yul\":5036:5037   */\n      0x00\n        /* \"#utility.yul\":5029:5117   */\n      mstore\n        /* \"#utility.yul\":5136:5140   */\n      0x11\n        /* \"#utility.yul\":5133:5134   */\n      0x04\n        /* \"#utility.yul\":5126:5141   */\n      mstore\n        /* \"#utility.yul\":5160:5164   */\n      0x24\n        /* \"#utility.yul\":5157:5158   */\n      0x00\n        /* \"#utility.yul\":5150:5165   */\n      revert\n        /* \"#utility.yul\":5177:5368   */\n    tag_27:\n        /* \"#utility.yul\":5217:5220   */\n      0x00\n        /* \"#utility.yul\":5236:5256   */\n      tag_109\n        /* \"#utility.yul\":5254:5255   */\n      dup3\n        /* \"#utility.yul\":5236:5256   */\n      tag_33\n      jump\t// in\n    tag_109:\n        /* \"#utility.yul\":5231:5256   */\n      swap2\n      pop\n        /* \"#utility.yul\":5270:5290   */\n      tag_110\n        /* \"#utility.yul\":5288:5289   */\n      dup4\n        /* \"#utility.yul\":5270:5290   */\n      tag_33\n      jump\t// in\n    tag_110:\n        /* \"#utility.yul\":5265:5290   */\n      swap3\n      pop\n        /* \"#utility.yul\":5313:5314   */\n      dup3\n        /* \"#utility.yul\":5310:5311   */\n      dup3\n        /* \"#utility.yul\":5306:5315   */\n      add\n        /* \"#utility.yul\":5299:5315   */\n      swap1\n      pop\n        /* \"#utility.yul\":5334:5337   */\n      dup1\n        /* \"#utility.yul\":5331:5332   */\n      dup3\n        /* \"#utility.yul\":5328:5338   */\n      gt\n        /* \"#utility.yul\":5325:5361   */\n      iszero\n      tag_111\n      jumpi\n        /* \"#utility.yul\":5341:5359   */\n      tag_112\n      tag_52\n      jump\t// in\n    tag_112:\n        /* \"#utility.yul\":5325:5361   */\n    tag_111:\n        /* \"#utility.yul\":5177:5368   */\n      swap3\n      swap2\n      pop\n      pop\n      jump\t// out\n\n    auxdata: 0xa26469706673582212202dc116a84ba8fab407af43c5e415aaf3931838183cc700a053b42bf4f7cd446264736f6c634300081a0033\n}\n",
				"bytecode": {
					"linkReferences": {},
					"object": "608060405260055f553480156012575f80fd5b50610462806100205f395ff3fe608060405234801561000f575f80fd5b506004361061004a575f3560e01c80633dece5111461004e5780636b1d2c4e1461006e5780636f5903301461008c578063e61e4008146100aa575b5f80fd5b6100566100ca565b6040516100659392919061028b565b60405180910390f35b610076610115565b60405161008391906102c0565b60405180910390f35b61009461011a565b6040516100a191906102d9565b60405180910390f35b6100b261012e565b6040516100c193929190610397565b60405180910390f35b5f806100d4610164565b6001836100e191906103f9565b9250600191506040518060600160405280600360ff168152602001600260ff168152602001600160ff168152509050909192565b5f5481565b5f6101236100ca565b909150508091505090565b5f80610138610186565b600180604051806060016040528060018152602001600281526020016003815250925092509250909192565b6040518060600160405280600390602082028036833780820191505090505090565b6040518060600160405280600390602082028036833780820191505090505090565b5f819050919050565b6101ba816101a8565b82525050565b5f8115159050919050565b6101d4816101c0565b82525050565b5f60039050919050565b5f81905092915050565b5f819050919050565b5f60ff82169050919050565b61020c816101f7565b82525050565b5f61021d8383610203565b60208301905092915050565b5f602082019050919050565b61023e816101da565b61024881846101e4565b9250610253826101ee565b805f5b8381101561028357815161026a8782610212565b965061027583610229565b925050600181019050610256565b505050505050565b5f60a08201905061029e5f8301866101b1565b6102ab60208301856101cb565b6102b86040830184610235565b949350505050565b5f6020820190506102d35f8301846101b1565b92915050565b5f6020820190506102ec5f8301846101cb565b92915050565b5f60039050919050565b5f81905092915050565b5f819050919050565b610318816101a8565b82525050565b5f610329838361030f565b60208301905092915050565b5f602082019050919050565b61034a816102f2565b61035481846102fc565b925061035f82610306565b805f5b8381101561038f578151610376878261031e565b965061038183610335565b925050600181019050610362565b505050505050565b5f60a0820190506103aa5f8301866101b1565b6103b760208301856101cb565b6103c46040830184610341565b949350505050565b7f4e487b71000000000000000000000000000000000000000000000000000000005f52601160045260245ffd5b5f610403826101a8565b915061040e836101a8565b9250828201905080821115610426576104256103cc565b5b9291505056fea26469706673582212202dc116a84ba8fab407af43c5e415aaf3931838183cc700a053b42bf4f7cd446264736f6c634300081a0033",
					"opcodes": "PUSH1 0x80 PUSH1 0x40 MSTORE PUSH1 0x5 PUSH0 SSTORE CALLVALUE DUP1 ISZERO PUSH1 0x12 JUMPI PUSH0 DUP1 REVERT JUMPDEST POP PUSH2 0x462 DUP1 PUSH2 0x20 PUSH0 CODECOPY PUSH0 RETURN INVALID PUSH1 0x80 PUSH1 0x40 MSTORE CALLVALUE DUP1 ISZERO PUSH2 0xF JUMPI PUSH0 DUP1 REVERT JUMPDEST POP PUSH1 0x4 CALLDATASIZE LT PUSH2 0x4A JUMPI PUSH0 CALLDATALOAD PUSH1 0xE0 SHR DUP1 PUSH4 0x3DECE511 EQ PUSH2 0x4E JUMPI DUP1 PUSH4 0x6B1D2C4E EQ PUSH2 0x6E JUMPI DUP1 PUSH4 0x6F590330 EQ PUSH2 0x8C JUMPI DUP1 PUSH4 0xE61E4008 EQ PUSH2 0xAA JUMPI JUMPDEST PUSH0 DUP1 REVERT JUMPDEST PUSH2 0x56 PUSH2 0xCA JUMP JUMPDEST PUSH1 0x40 MLOAD PUSH2 0x65 SWAP4 SWAP3 SWAP2 SWAP1 PUSH2 0x28B JUMP JUMPDEST PUSH1 0x40 MLOAD DUP1 SWAP2 SUB SWAP1 RETURN JUMPDEST PUSH2 0x76 PUSH2 0x115 JUMP JUMPDEST PUSH1 0x40 MLOAD PUSH2 0x83 SWAP2 SWAP1 PUSH2 0x2C0 JUMP JUMPDEST PUSH1 0x40 MLOAD DUP1 SWAP2 SUB SWAP1 RETURN JUMPDEST PUSH2 0x94 PUSH2 0x11A JUMP JUMPDEST PUSH1 0x40 MLOAD PUSH2 0xA1 SWAP2 SWAP1 PUSH2 0x2D9 JUMP JUMPDEST PUSH1 0x40 MLOAD DUP1 SWAP2 SUB SWAP1 RETURN JUMPDEST PUSH2 0xB2 PUSH2 0x12E JUMP JUMPDEST PUSH1 0x40 MLOAD PUSH2 0xC1 SWAP4 SWAP3 SWAP2 SWAP1 PUSH2 0x397 JUMP JUMPDEST PUSH1 0x40 MLOAD DUP1 SWAP2 SUB SWAP1 RETURN JUMPDEST PUSH0 DUP1 PUSH2 0xD4 PUSH2 0x164 JUMP JUMPDEST PUSH1 0x1 DUP4 PUSH2 0xE1 SWAP2 SWAP1 PUSH2 0x3F9 JUMP JUMPDEST SWAP3 POP PUSH1 0x1 SWAP2 POP PUSH1 0x40 MLOAD DUP1 PUSH1 0x60 ADD PUSH1 0x40 MSTORE DUP1 PUSH1 0x3 PUSH1 0xFF AND DUP2 MSTORE PUSH1 0x20 ADD PUSH1 0x2 PUSH1 0xFF AND DUP2 MSTORE PUSH1 0x20 ADD PUSH1 0x1 PUSH1 0xFF AND DUP2 MSTORE POP SWAP1 POP SWAP1 SWAP2 SWAP3 JUMP JUMPDEST PUSH0 SLOAD DUP2 JUMP JUMPDEST PUSH0 PUSH2 0x123 PUSH2 0xCA JUMP JUMPDEST SWAP1 SWAP2 POP POP DUP1 SWAP2 POP POP SWAP1 JUMP JUMPDEST PUSH0 DUP1 PUSH2 0x138 PUSH2 0x186 JUMP JUMPDEST PUSH1 0x1 DUP1 PUSH1 0x40 MLOAD DUP1 PUSH1 0x60 ADD PUSH1 0x40 MSTORE DUP1 PUSH1 0x1 DUP2 MSTORE PUSH1 0x20 ADD PUSH1 0x2 DUP2 MSTORE PUSH1 0x20 ADD PUSH1 0x3 DUP2 MSTORE POP SWAP3 POP SWAP3 POP SWAP3 POP SWAP1 SWAP2 SWAP3 JUMP JUMPDEST PUSH1 0x40 MLOAD DUP1 PUSH1 0x60 ADD PUSH1 0x40 MSTORE DUP1 PUSH1 0x3 SWAP1 PUSH1 0x20 DUP3 MUL DUP1 CALLDATASIZE DUP4 CALLDATACOPY DUP1 DUP3 ADD SWAP2 POP POP SWAP1 POP POP SWAP1 JUMP JUMPDEST PUSH1 0x40 MLOAD DUP1 PUSH1 0x60 ADD PUSH1 0x40 MSTORE DUP1 PUSH1 0x3 SWAP1 PUSH1 0x20 DUP3 MUL DUP1 CALLDATASIZE DUP4 CALLDATACOPY DUP1 DUP3 ADD SWAP2 POP POP SWAP1 POP POP SWAP1 JUMP JUMPDEST PUSH0 DUP2 SWAP1 POP SWAP2 SWAP1 POP JUMP JUMPDEST PUSH2 0x1BA DUP2 PUSH2 0x1A8 JUMP JUMPDEST DUP3 MSTORE POP POP JUMP JUMPDEST PUSH0 DUP2 ISZERO ISZERO SWAP1 POP SWAP2 SWAP1 POP JUMP JUMPDEST PUSH2 0x1D4 DUP2 PUSH2 0x1C0 JUMP JUMPDEST DUP3 MSTORE POP POP JUMP JUMPDEST PUSH0 PUSH1 0x3 SWAP1 POP SWAP2 SWAP1 POP JUMP JUMPDEST PUSH0 DUP2 SWAP1 POP SWAP3 SWAP2 POP POP JUMP JUMPDEST PUSH0 DUP2 SWAP1 POP SWAP2 SWAP1 POP JUMP JUMPDEST PUSH0 PUSH1 0xFF DUP3 AND SWAP1 POP SWAP2 SWAP1 POP JUMP JUMPDEST PUSH2 0x20C DUP2 PUSH2 0x1F7 JUMP JUMPDEST DUP3 MSTORE POP POP JUMP JUMPDEST PUSH0 PUSH2 0x21D DUP4 DUP4 PUSH2 0x203 JUMP JUMPDEST PUSH1 0x20 DUP4 ADD SWAP1 POP SWAP3 SWAP2 POP POP JUMP JUMPDEST PUSH0 PUSH1 0x20 DUP3 ADD SWAP1 POP SWAP2 SWAP1 POP JUMP JUMPDEST PUSH2 0x23E DUP2 PUSH2 0x1DA JUMP JUMPDEST PUSH2 0x248 DUP2 DUP5 PUSH2 0x1E4 JUMP JUMPDEST SWAP3 POP PUSH2 0x253 DUP3 PUSH2 0x1EE JUMP JUMPDEST DUP1 PUSH0 JUMPDEST DUP4 DUP2 LT ISZERO PUSH2 0x283 JUMPI DUP2 MLOAD PUSH2 0x26A DUP8 DUP3 PUSH2 0x212 JUMP JUMPDEST SWAP7 POP PUSH2 0x275 DUP4 PUSH2 0x229 JUMP JUMPDEST SWAP3 POP POP PUSH1 0x1 DUP2 ADD SWAP1 POP PUSH2 0x256 JUMP JUMPDEST POP POP POP POP POP POP JUMP JUMPDEST PUSH0 PUSH1 0xA0 DUP3 ADD SWAP1 POP PUSH2 0x29E PUSH0 DUP4 ADD DUP7 PUSH2 0x1B1 JUMP JUMPDEST PUSH2 0x2AB PUSH1 0x20 DUP4 ADD DUP6 PUSH2 0x1CB JUMP JUMPDEST PUSH2 0x2B8 PUSH1 0x40 DUP4 ADD DUP5 PUSH2 0x235 JUMP JUMPDEST SWAP5 SWAP4 POP POP POP POP JUMP JUMPDEST PUSH0 PUSH1 0x20 DUP3 ADD SWAP1 POP PUSH2 0x2D3 PUSH0 DUP4 ADD DUP5 PUSH2 0x1B1 JUMP JUMPDEST SWAP3 SWAP2 POP POP JUMP JUMPDEST PUSH0 PUSH1 0x20 DUP3 ADD SWAP1 POP PUSH2 0x2EC PUSH0 DUP4 ADD DUP5 PUSH2 0x1CB JUMP JUMPDEST SWAP3 SWAP2 POP POP JUMP JUMPDEST PUSH0 PUSH1 0x3 SWAP1 POP SWAP2 SWAP1 POP JUMP JUMPDEST PUSH0 DUP2 SWAP1 POP SWAP3 SWAP2 POP POP JUMP JUMPDEST PUSH0 DUP2 SWAP1 POP SWAP2 SWAP1 POP JUMP JUMPDEST PUSH2 0x318 DUP2 PUSH2 0x1A8 JUMP JUMPDEST DUP3 MSTORE POP POP JUMP JUMPDEST PUSH0 PUSH2 0x329 DUP4 DUP4 PUSH2 0x30F JUMP JUMPDEST PUSH1 0x20 DUP4 ADD SWAP1 POP SWAP3 SWAP2 POP POP JUMP JUMPDEST PUSH0 PUSH1 0x20 DUP3 ADD SWAP1 POP SWAP2 SWAP1 POP JUMP JUMPDEST PUSH2 0x34A DUP2 PUSH2 0x2F2 JUMP JUMPDEST PUSH2 0x354 DUP2 DUP5 PUSH2 0x2FC JUMP JUMPDEST SWAP3 POP PUSH2 0x35F DUP3 PUSH2 0x306 JUMP JUMPDEST DUP1 PUSH0 JUMPDEST DUP4 DUP2 LT ISZERO PUSH2 0x38F JUMPI DUP2 MLOAD PUSH2 0x376 DUP8 DUP3 PUSH2 0x31E JUMP JUMPDEST SWAP7 POP PUSH2 0x381 DUP4 PUSH2 0x335 JUMP JUMPDEST SWAP3 POP POP PUSH1 0x1 DUP2 ADD SWAP1 POP PUSH2 0x362 JUMP JUMPDEST POP POP POP POP POP POP JUMP JUMPDEST PUSH0 PUSH1 0xA0 DUP3 ADD SWAP1 POP PUSH2 0x3AA PUSH0 DUP4 ADD DUP7 PUSH2 0x1B1 JUMP JUMPDEST PUSH2 0x3B7 PUSH1 0x20 DUP4 ADD DUP6 PUSH2 0x1CB JUMP JUMPDEST PUSH2 0x3C4 PUSH1 0x40 DUP4 ADD DUP5 PUSH2 0x341 JUMP JUMPDEST SWAP5 SWAP4 POP POP POP POP JUMP JUMPDEST PUSH32 0x4E487B7100000000000000000000000000000000000000000000000000000000 PUSH0 MSTORE PUSH1 0x11 PUSH1 0x4 MSTORE PUSH1 0x24 PUSH0 REVERT JUMPDEST PUSH0 PUSH2 0x403 DUP3 PUSH2 0x1A8 JUMP JUMPDEST SWAP2 POP PUSH2 0x40E DUP4 PUSH2 0x1A8 JUMP JUMPDEST SWAP3 POP DUP3 DUP3 ADD SWAP1 POP DUP1 DUP3 GT ISZERO PUSH2 0x426 JUMPI PUSH2 0x425 PUSH2 0x3CC JUMP JUMPDEST JUMPDEST SWAP3 SWAP2 POP POP JUMP INVALID LOG2 PUSH5 0x6970667358 0x22 SLT KECCAK256 0x2D 0xC1 AND 0xA8 0x4B 0xA8 STATICCALL 0xB4 SMOD 0xAF NUMBER 0xC5 0xE4 ISZERO 0xAA RETURN SWAP4 XOR CODESIZE XOR EXTCODECOPY 0xC7 STOP LOG0 MSTORE8 0xB4 0x2B DELEGATECALL 0xF7 0xCD PREVRANDAO PUSH3 0x64736F PUSH13 0x634300081A0033000000000000 "
				},
				"gasEstimates": {
					"creation": {
						"codeDepositCost": "224400",
						"executionCost": "22372",
						"totalCost": "246772"
					},
					"external": {
						"_number2()": "2424",
						"readReturn()": "infinite",
						"returnMultiple()": "infinite",
						"returnNamed()": "infinite"
					}
				},
				"methodIdentifiers": {
					"_number2()": "6b1d2c4e",
					"readReturn()": "6f590330",
					"returnMultiple()": "e61e4008",
					"returnNamed()": "3dece511"
				}
			},
			"storageLayout": {
				"storage": [
					{
						"astId": 4,
						"contract": "Solidity/Return.sol:Return",
						"label": "_number2",
						"offset": 0,
						"slot": "0",
						"type": "t_uint256"
					}
				],
				"types": {
					"t_uint256": {
						"encoding": "inplace",
						"label": "uint256",
						"numberOfBytes": "32"
					}
				}
			},
			"userdoc": {
				"kind": "user",
				"methods": {},
				"version": 1
			}
		}
	}
}